{
  "address": "0x6f2219716998131D01ef901B0ec2C7224dA6E4b9",
  "abi": [
    {
      "inputs": [
        {
          "internalType": "uint256",
          "name": "launchTime_",
          "type": "uint256"
        },
        {
          "internalType": "uint256",
          "name": "deadline_",
          "type": "uint256"
        },
        {
          "internalType": "uint256",
          "name": "timeToRelease_",
          "type": "uint256"
        }
      ],
      "stateMutability": "nonpayable",
      "type": "constructor"
    },
    {
      "anonymous": false,
      "inputs": [
        {
          "indexed": true,
          "internalType": "address",
          "name": "owner",
          "type": "address"
        },
        {
          "indexed": true,
          "internalType": "address",
          "name": "spender",
          "type": "address"
        },
        {
          "indexed": false,
          "internalType": "uint256",
          "name": "value",
          "type": "uint256"
        }
      ],
      "name": "Approval",
      "type": "event"
    },
    {
      "anonymous": false,
      "inputs": [
        {
          "indexed": true,
          "internalType": "address",
          "name": "previousOwner",
          "type": "address"
        },
        {
          "indexed": true,
          "internalType": "address",
          "name": "newOwner",
          "type": "address"
        }
      ],
      "name": "OwnershipTransferred",
      "type": "event"
    },
    {
      "anonymous": false,
      "inputs": [
        {
          "indexed": false,
          "internalType": "address",
          "name": "token",
          "type": "address"
        },
        {
          "indexed": false,
          "internalType": "uint256",
          "name": "shareAPR",
          "type": "uint256"
        },
        {
          "indexed": false,
          "internalType": "uint256",
          "name": "shareAPRBase",
          "type": "uint256"
        },
        {
          "indexed": false,
          "internalType": "uint256",
          "name": "minimumStake",
          "type": "uint256"
        },
        {
          "indexed": false,
          "internalType": "uint256",
          "name": "cap",
          "type": "uint256"
        },
        {
          "indexed": false,
          "internalType": "uint256",
          "name": "totalShare",
          "type": "uint256"
        },
        {
          "indexed": false,
          "internalType": "uint256",
          "name": "totalShareBase",
          "type": "uint256"
        }
      ],
      "name": "PoolAdded",
      "type": "event"
    },
    {
      "anonymous": false,
      "inputs": [
        {
          "indexed": true,
          "internalType": "address",
          "name": "redeemer",
          "type": "address"
        },
        {
          "indexed": true,
          "internalType": "address",
          "name": "pool",
          "type": "address"
        },
        {
          "indexed": false,
          "internalType": "uint256",
          "name": "amount",
          "type": "uint256"
        },
        {
          "indexed": false,
          "internalType": "uint256",
          "name": "timestamp",
          "type": "uint256"
        }
      ],
      "name": "Redeem",
      "type": "event"
    },
    {
      "anonymous": false,
      "inputs": [
        {
          "indexed": true,
          "internalType": "address",
          "name": "owner",
          "type": "address"
        },
        {
          "indexed": true,
          "internalType": "address",
          "name": "nftAddress",
          "type": "address"
        },
        {
          "indexed": false,
          "internalType": "address",
          "name": "tokenLinked",
          "type": "address"
        },
        {
          "indexed": false,
          "internalType": "uint256",
          "name": "tokenId",
          "type": "uint256"
        },
        {
          "indexed": false,
          "internalType": "uint256",
          "name": "priceInPoint",
          "type": "uint256"
        },
        {
          "indexed": false,
          "internalType": "uint256",
          "name": "minimumStakeRequired",
          "type": "uint256"
        },
        {
          "indexed": false,
          "internalType": "uint256",
          "name": "timestamp",
          "type": "uint256"
        }
      ],
      "name": "RewardAdded",
      "type": "event"
    },
    {
      "anonymous": false,
      "inputs": [
        {
          "indexed": true,
          "internalType": "address",
          "name": "claimer",
          "type": "address"
        },
        {
          "indexed": true,
          "internalType": "address",
          "name": "token",
          "type": "address"
        },
        {
          "indexed": false,
          "internalType": "uint256",
          "name": "key",
          "type": "uint256"
        },
        {
          "indexed": false,
          "internalType": "uint256",
          "name": "tokenId",
          "type": "uint256"
        },
        {
          "indexed": false,
          "internalType": "uint256",
          "name": "timestamp",
          "type": "uint256"
        }
      ],
      "name": "RewardClaimed",
      "type": "event"
    },
    {
      "anonymous": false,
      "inputs": [
        {
          "indexed": true,
          "internalType": "address",
          "name": "owner",
          "type": "address"
        },
        {
          "indexed": true,
          "internalType": "address",
          "name": "token",
          "type": "address"
        },
        {
          "indexed": false,
          "internalType": "uint256",
          "name": "key",
          "type": "uint256"
        },
        {
          "indexed": false,
          "internalType": "uint256",
          "name": "tokenId",
          "type": "uint256"
        },
        {
          "indexed": false,
          "internalType": "uint256",
          "name": "timestamp",
          "type": "uint256"
        }
      ],
      "name": "RewardReleased",
      "type": "event"
    },
    {
      "anonymous": false,
      "inputs": [
        {
          "indexed": true,
          "internalType": "address",
          "name": "staker",
          "type": "address"
        },
        {
          "indexed": true,
          "internalType": "address",
          "name": "pool",
          "type": "address"
        },
        {
          "indexed": false,
          "internalType": "uint256",
          "name": "amount",
          "type": "uint256"
        },
        {
          "indexed": false,
          "internalType": "uint256",
          "name": "timestamp",
          "type": "uint256"
        }
      ],
      "name": "Stake",
      "type": "event"
    },
    {
      "anonymous": false,
      "inputs": [
        {
          "indexed": true,
          "internalType": "address",
          "name": "from",
          "type": "address"
        },
        {
          "indexed": true,
          "internalType": "address",
          "name": "to",
          "type": "address"
        },
        {
          "indexed": false,
          "internalType": "uint256",
          "name": "value",
          "type": "uint256"
        }
      ],
      "name": "Transfer",
      "type": "event"
    },
    {
      "anonymous": false,
      "inputs": [
        {
          "indexed": true,
          "internalType": "address",
          "name": "staker",
          "type": "address"
        },
        {
          "indexed": true,
          "internalType": "address",
          "name": "pool",
          "type": "address"
        },
        {
          "indexed": false,
          "internalType": "uint256",
          "name": "amount",
          "type": "uint256"
        },
        {
          "indexed": false,
          "internalType": "uint256",
          "name": "timestamp",
          "type": "uint256"
        }
      ],
      "name": "Unstake",
      "type": "event"
    },
    {
      "inputs": [
        {
          "internalType": "address",
          "name": "_token",
          "type": "address"
        },
        {
          "internalType": "uint256",
          "name": "_shareAPR",
          "type": "uint256"
        },
        {
          "internalType": "uint256",
          "name": "_shareAPRBase",
          "type": "uint256"
        },
        {
          "internalType": "uint256",
          "name": "_minimumStake",
          "type": "uint256"
        },
        {
          "internalType": "uint256",
          "name": "cap_",
          "type": "uint256"
        },
        {
          "internalType": "uint256",
          "name": "_totalShare",
          "type": "uint256"
        },
        {
          "internalType": "uint256",
          "name": "_totalShareBase",
          "type": "uint256"
        }
      ],
      "name": "addPool",
      "outputs": [],
      "stateMutability": "nonpayable",
      "type": "function"
    },
    {
      "inputs": [
        {
          "internalType": "uint256",
          "name": "_tokenId",
          "type": "uint256"
        },
        {
          "internalType": "uint256",
          "name": "_priceInPoint",
          "type": "uint256"
        },
        {
          "internalType": "uint256",
          "name": "_minimumStakeRequired",
          "type": "uint256"
        },
        {
          "internalType": "address",
          "name": "_nftAddress",
          "type": "address"
        },
        {
          "internalType": "address",
          "name": "owner_",
          "type": "address"
        },
        {
          "internalType": "address",
          "name": "_tokenLinked",
          "type": "address"
        }
      ],
      "name": "addTokenReward",
      "outputs": [],
      "stateMutability": "nonpayable",
      "type": "function"
    },
    {
      "inputs": [
        {
          "internalType": "address",
          "name": "owner",
          "type": "address"
        },
        {
          "internalType": "address",
          "name": "spender",
          "type": "address"
        }
      ],
      "name": "allowance",
      "outputs": [
        {
          "internalType": "uint256",
          "name": "",
          "type": "uint256"
        }
      ],
      "stateMutability": "view",
      "type": "function"
    },
    {
      "inputs": [
        {
          "internalType": "address",
          "name": "spender",
          "type": "address"
        },
        {
          "internalType": "uint256",
          "name": "amount",
          "type": "uint256"
        }
      ],
      "name": "approve",
      "outputs": [
        {
          "internalType": "bool",
          "name": "",
          "type": "bool"
        }
      ],
      "stateMutability": "nonpayable",
      "type": "function"
    },
    {
      "inputs": [
        {
          "internalType": "address",
          "name": "account",
          "type": "address"
        }
      ],
      "name": "balanceOf",
      "outputs": [
        {
          "internalType": "uint256",
          "name": "",
          "type": "uint256"
        }
      ],
      "stateMutability": "view",
      "type": "function"
    },
    {
      "inputs": [],
      "name": "cap",
      "outputs": [
        {
          "internalType": "uint256",
          "name": "",
          "type": "uint256"
        }
      ],
      "stateMutability": "view",
      "type": "function"
    },
    {
      "inputs": [
        {
          "internalType": "uint256",
          "name": "key",
          "type": "uint256"
        }
      ],
      "name": "claim",
      "outputs": [],
      "stateMutability": "nonpayable",
      "type": "function"
    },
    {
      "inputs": [],
      "name": "decimals",
      "outputs": [
        {
          "internalType": "uint8",
          "name": "",
          "type": "uint8"
        }
      ],
      "stateMutability": "view",
      "type": "function"
    },
    {
      "inputs": [
        {
          "internalType": "address",
          "name": "spender",
          "type": "address"
        },
        {
          "internalType": "uint256",
          "name": "subtractedValue",
          "type": "uint256"
        }
      ],
      "name": "decreaseAllowance",
      "outputs": [
        {
          "internalType": "bool",
          "name": "",
          "type": "bool"
        }
      ],
      "stateMutability": "nonpayable",
      "type": "function"
    },
    {
      "inputs": [],
      "name": "farmDeadline",
      "outputs": [
        {
          "internalType": "uint256",
          "name": "",
          "type": "uint256"
        }
      ],
      "stateMutability": "view",
      "type": "function"
    },
    {
      "inputs": [
        {
          "internalType": "uint256",
          "name": "index",
          "type": "uint256"
        }
      ],
      "name": "getPoolByIndex",
      "outputs": [
        {
          "internalType": "address",
          "name": "poolAddress",
          "type": "address"
        }
      ],
      "stateMutability": "view",
      "type": "function"
    },
    {
      "inputs": [
        {
          "internalType": "address",
          "name": "_token",
          "type": "address"
        }
      ],
      "name": "getPoolDetails",
      "outputs": [
        {
          "internalType": "uint256",
          "name": "_shareAPR",
          "type": "uint256"
        },
        {
          "internalType": "uint256",
          "name": "_shareAPRBase",
          "type": "uint256"
        },
        {
          "internalType": "uint256",
          "name": "_minimumStake",
          "type": "uint256"
        },
        {
          "internalType": "uint256",
          "name": "cap_",
          "type": "uint256"
        },
        {
          "internalType": "uint256",
          "name": "totalSupply_",
          "type": "uint256"
        },
        {
          "internalType": "uint256",
          "name": "_totalShare",
          "type": "uint256"
        },
        {
          "internalType": "uint256",
          "name": "_totalShareBase",
          "type": "uint256"
        }
      ],
      "stateMutability": "view",
      "type": "function"
    },
    {
      "inputs": [],
      "name": "getPools",
      "outputs": [
        {
          "internalType": "address[]",
          "name": "poolAddreses",
          "type": "address[]"
        }
      ],
      "stateMutability": "view",
      "type": "function"
    },
    {
      "inputs": [
        {
          "internalType": "address",
          "name": "user",
          "type": "address"
        }
      ],
      "name": "getUserPools",
      "outputs": [
        {
          "internalType": "address[]",
          "name": "currentUserPools",
          "type": "address[]"
        }
      ],
      "stateMutability": "view",
      "type": "function"
    },
    {
      "inputs": [
        {
          "internalType": "address",
          "name": "spender",
          "type": "address"
        },
        {
          "internalType": "uint256",
          "name": "addedValue",
          "type": "uint256"
        }
      ],
      "name": "increaseAllowance",
      "outputs": [
        {
          "internalType": "bool",
          "name": "",
          "type": "bool"
        }
      ],
      "stateMutability": "nonpayable",
      "type": "function"
    },
    {
      "inputs": [],
      "name": "launchTime",
      "outputs": [
        {
          "internalType": "uint256",
          "name": "",
          "type": "uint256"
        }
      ],
      "stateMutability": "view",
      "type": "function"
    },
    {
      "inputs": [],
      "name": "mintedPoints",
      "outputs": [
        {
          "internalType": "uint256",
          "name": "",
          "type": "uint256"
        }
      ],
      "stateMutability": "view",
      "type": "function"
    },
    {
      "inputs": [],
      "name": "name",
      "outputs": [
        {
          "internalType": "string",
          "name": "",
          "type": "string"
        }
      ],
      "stateMutability": "view",
      "type": "function"
    },
    {
      "inputs": [
        {
          "internalType": "address",
          "name": "",
          "type": "address"
        },
        {
          "internalType": "address",
          "name": "",
          "type": "address"
        },
        {
          "internalType": "uint256",
          "name": "",
          "type": "uint256"
        },
        {
          "internalType": "bytes",
          "name": "",
          "type": "bytes"
        }
      ],
      "name": "onERC721Received",
      "outputs": [
        {
          "internalType": "bytes4",
          "name": "",
          "type": "bytes4"
        }
      ],
      "stateMutability": "nonpayable",
      "type": "function"
    },
    {
      "inputs": [],
      "name": "owner",
      "outputs": [
        {
          "internalType": "address",
          "name": "",
          "type": "address"
        }
      ],
      "stateMutability": "view",
      "type": "function"
    },
    {
      "inputs": [
        {
          "internalType": "address[]",
          "name": "_tokens",
          "type": "address[]"
        },
        {
          "internalType": "uint256",
          "name": "key",
          "type": "uint256"
        }
      ],
      "name": "redeemAndClaim",
      "outputs": [],
      "stateMutability": "nonpayable",
      "type": "function"
    },
    {
      "inputs": [
        {
          "internalType": "address[]",
          "name": "_tokens",
          "type": "address[]"
        }
      ],
      "name": "redeemBatch",
      "outputs": [],
      "stateMutability": "nonpayable",
      "type": "function"
    },
    {
      "inputs": [
        {
          "internalType": "uint256",
          "name": "key",
          "type": "uint256"
        }
      ],
      "name": "releaseNFT",
      "outputs": [],
      "stateMutability": "nonpayable",
      "type": "function"
    },
    {
      "inputs": [],
      "name": "renounceOwnership",
      "outputs": [],
      "stateMutability": "nonpayable",
      "type": "function"
    },
    {
      "inputs": [],
      "name": "rewardCount",
      "outputs": [
        {
          "internalType": "uint256",
          "name": "",
          "type": "uint256"
        }
      ],
      "stateMutability": "view",
      "type": "function"
    },
    {
      "inputs": [
        {
          "internalType": "uint256",
          "name": "_id",
          "type": "uint256"
        }
      ],
      "name": "rewardTokenDetails",
      "outputs": [
        {
          "internalType": "address",
          "name": "_nftAddress",
          "type": "address"
        },
        {
          "internalType": "address",
          "name": "_owner",
          "type": "address"
        },
        {
          "internalType": "uint256",
          "name": "_tokenId",
          "type": "uint256"
        },
        {
          "internalType": "uint256",
          "name": "_priceInPoint",
          "type": "uint256"
        },
        {
          "internalType": "uint256",
          "name": "_minimumStakeRequired",
          "type": "uint256"
        },
        {
          "internalType": "address",
          "name": "_tokenLinked",
          "type": "address"
        }
      ],
      "stateMutability": "view",
      "type": "function"
    },
    {
      "inputs": [
        {
          "internalType": "address[]",
          "name": "_tokens",
          "type": "address[]"
        },
        {
          "internalType": "uint256[]",
          "name": "_amounts",
          "type": "uint256[]"
        }
      ],
      "name": "stakeBatch",
      "outputs": [],
      "stateMutability": "nonpayable",
      "type": "function"
    },
    {
      "inputs": [],
      "name": "symbol",
      "outputs": [
        {
          "internalType": "string",
          "name": "",
          "type": "string"
        }
      ],
      "stateMutability": "view",
      "type": "function"
    },
    {
      "inputs": [],
      "name": "totalSupply",
      "outputs": [
        {
          "internalType": "uint256",
          "name": "",
          "type": "uint256"
        }
      ],
      "stateMutability": "view",
      "type": "function"
    },
    {
      "inputs": [
        {
          "internalType": "address",
          "name": "recipient",
          "type": "address"
        },
        {
          "internalType": "uint256",
          "name": "amount",
          "type": "uint256"
        }
      ],
      "name": "transfer",
      "outputs": [
        {
          "internalType": "bool",
          "name": "",
          "type": "bool"
        }
      ],
      "stateMutability": "nonpayable",
      "type": "function"
    },
    {
      "inputs": [
        {
          "internalType": "address",
          "name": "sender",
          "type": "address"
        },
        {
          "internalType": "address",
          "name": "recipient",
          "type": "address"
        },
        {
          "internalType": "uint256",
          "name": "amount",
          "type": "uint256"
        }
      ],
      "name": "transferFrom",
      "outputs": [
        {
          "internalType": "bool",
          "name": "",
          "type": "bool"
        }
      ],
      "stateMutability": "nonpayable",
      "type": "function"
    },
    {
      "inputs": [
        {
          "internalType": "address",
          "name": "newOwner",
          "type": "address"
        }
      ],
      "name": "transferOwnership",
      "outputs": [],
      "stateMutability": "nonpayable",
      "type": "function"
    },
    {
      "inputs": [
        {
          "internalType": "address[]",
          "name": "_tokens",
          "type": "address[]"
        }
      ],
      "name": "unStakeEarlyBatch",
      "outputs": [],
      "stateMutability": "nonpayable",
      "type": "function"
    },
    {
      "inputs": [
        {
          "internalType": "address[]",
          "name": "_tokens",
          "type": "address[]"
        }
      ],
      "name": "unstakeBatch",
      "outputs": [],
      "stateMutability": "nonpayable",
      "type": "function"
    },
    {
      "inputs": [
        {
          "internalType": "address",
          "name": "user",
          "type": "address"
        },
        {
          "internalType": "address",
          "name": "token",
          "type": "address"
        }
      ],
      "name": "userPoolDetails",
      "outputs": [
        {
          "internalType": "uint256",
          "name": "amount",
          "type": "uint256"
        },
        {
          "internalType": "uint256",
          "name": "lastRewardBlock",
          "type": "uint256"
        },
        {
          "internalType": "uint256",
          "name": "stakeTime",
          "type": "uint256"
        }
      ],
      "stateMutability": "view",
      "type": "function"
    },
    {
      "inputs": [
        {
          "internalType": "address",
          "name": "_user",
          "type": "address"
        },
        {
          "internalType": "address",
          "name": "_token",
          "type": "address"
        }
      ],
      "name": "userPoolReward",
      "outputs": [
        {
          "internalType": "uint256",
          "name": "_totalRewards",
          "type": "uint256"
        }
      ],
      "stateMutability": "view",
      "type": "function"
    },
    {
      "inputs": [
        {
          "internalType": "address",
          "name": "user",
          "type": "address"
        }
      ],
      "name": "userRewards",
      "outputs": [
        {
          "internalType": "uint256",
          "name": "_totalRewards",
          "type": "uint256"
        }
      ],
      "stateMutability": "view",
      "type": "function"
    }
  ],
  "transactionHash": "0x421ce20d9cd34d1933acca9dd0693b78f3194d6441ae61e0fee53cdb9300d90d",
  "args": [
    1642501400,
    1645093400,
    1649413400
  ],
  "solcInputHash": "84fcbd38f0bd40567b4fc62f362e1a22",
  "bytecode": "0x60e06040523480156200001157600080fd5b506040516200465d3803806200465d8339810160408190526200003491620002b4565b8282826040518060400160405280601481526020017f537461727466692052657761726420546f6b656e00000000000000000000000081525060405180604001604052806005815260200164525354464960d81b815250620000a56200009f620001ba60201b60201c565b620001be565b8151620000ba9060049060208501906200020e565b508051620000d09060059060208401906200020e565b50506001600655508282116200013e5760405162461bcd60e51b815260206004820152602860248201527f4c61756e63682074696d652073686f756c64206265206c657373207468656e20604482015267646561646c696e6560c01b60648201526084015b60405180910390fd5b818111620001a15760405162461bcd60e51b815260206004820152602960248201527f646561646c696e652073686f756c64206265206c657373207468656e2072656c604482015268656173652074696d6560b81b606482015260840162000135565b60a09190915260c091909152608052506200031f915050565b3390565b600080546001600160a01b038381166001600160a01b0319831681178455604051919092169283917f8be0079c531659141344cd1fd0a4f28419497f9722a3daafe3b4186f6b6457e09190a35050565b8280546200021c90620002e2565b90600052602060002090601f0160209004810192826200024057600085556200028b565b82601f106200025b57805160ff19168380011785556200028b565b828001600101855582156200028b579182015b828111156200028b5782518255916020019190600101906200026e565b50620002999291506200029d565b5090565b5b808211156200029957600081556001016200029e565b600080600060608486031215620002c9578283fd5b8351925060208401519150604084015190509250925092565b600181811c90821680620002f757607f821691505b602082108114156200031957634e487b7160e01b600052602260045260246000fd5b50919050565b60805160a05160c0516142c16200039c60003960008181610498015281816122bf015281816124a101526129100152600081816103c4015281816107c8015281816107ee0152818161092b0152818161095101528181611b7d01528181611dfb01528181611e260152611e4c01526000611a3701526142c16000f3fe608060405234801561001057600080fd5b50600436106102775760003560e01c8063715018a611610160578063a457c2d7116100d8578063ce47e73e1161008c578063d814386011610071578063d814386014610725578063dd62ed3e14610738578063f2fde38b1461077e57600080fd5b8063ce47e73e1461067c578063d3e90fa01461068f57600080fd5b8063bc0e610a116100bd578063bc0e610a14610643578063bf60269214610656578063cc73c66f1461066957600080fd5b8063a457c2d71461061d578063a9059cbb1461063057600080fd5b80637dede9c11161012f57806395d89b411161011457806395d89b41146105ef5780639816af58146105f7578063a0378aec1461060a57600080fd5b80637dede9c11461052a5780638da5cb5b146105d157600080fd5b8063715018a614610486578063790854251461048e578063790ca413146104965780637d447b22146104bc57600080fd5b806335630a3e116101f357806356814878116101c2578063673a2a1f116101a7578063673a2a1f146104035780636ce0c4b51461041857806370a082311461045057600080fd5b806356814878146103e85780635e5ba8d7146103f057600080fd5b806335630a3e14610387578063379607f51461039c57806339509351146103af5780634acaeea6146103c257600080fd5b8063150b7a021161024a57806323b872dd1161022f57806323b872dd1461035d578063313ce56714610370578063355274ea1461037f57600080fd5b8063150b7a02146102ed57806318160ddd1461035557600080fd5b80630660f1e81461027c57806306fdde03146102a257806308206a77146102b7578063095ea7b3146102ca575b600080fd5b61028f61028a366004613b18565b610791565b6040519081526020015b60405180910390f35b6102aa610893565b6040516102999190613f41565b61028f6102c5366004613b50565b610925565b6102dd6102d8366004613cbf565b61098c565b6040519015158152602001610299565b6103246102fb366004613bc8565b7f150b7a0200000000000000000000000000000000000000000000000000000000949350505050565b6040517fffffffff000000000000000000000000000000000000000000000000000000009091168152602001610299565b60035461028f565b6102dd61036b366004613b88565b6109a3565b60405160128152602001610299565b60075461028f565b61039a610395366004613e81565b610a8e565b005b61039a6103aa366004613e51565b610aa4565b6102dd6103bd366004613cbf565b610b17565b7f000000000000000000000000000000000000000000000000000000000000000061028f565b60085461028f565b61039a6103fe366004613e51565b610b60565b61040b610b6d565b6040516102999190613ee7565b61042b610426366004613e51565b610b7e565b60405173ffffffffffffffffffffffffffffffffffffffff9091168152602001610299565b61028f61045e366004613b18565b73ffffffffffffffffffffffffffffffffffffffff1660009081526001602052604090205490565b61039a610b8b565b60095461028f565b7f000000000000000000000000000000000000000000000000000000000000000061028f565b61050f6104ca366004613b50565b73ffffffffffffffffffffffffffffffffffffffff91821660009081526010602090815260408083209390941682529190915220805460028201546001909201549092565b60408051938452602084019290925290820152606001610299565b610588610538366004613e51565b6000908152600a602052604090208054600182015460028301546003840154600485015460059095015473ffffffffffffffffffffffffffffffffffffffff948516969385169592949193911690565b6040805173ffffffffffffffffffffffffffffffffffffffff978816815295871660208701528501939093526060840191909152608083015290911660a082015260c001610299565b60005473ffffffffffffffffffffffffffffffffffffffff1661042b565b6102aa610c18565b61040b610605366004613b18565b610c27565b61039a610618366004613d3e565b610c32565b6102dd61062b366004613cbf565b610d11565b6102dd61063e366004613cbf565b610de9565b61039a610651366004613d3e565b610df6565b61039a610664366004613de7565b610ed0565b61039a610677366004613cea565b611001565b61039a61068a366004613d3e565b611019565b6106f061069d366004613b18565b73ffffffffffffffffffffffffffffffffffffffff166000908152600f60205260409020805460018201546002830154600384015460048501546005860154600690960154949693959294919390929190565b604080519788526020880196909652948601939093526060850191909152608084015260a083015260c082015260e001610299565b61039a610733366004613d7e565b6110f3565b61028f610746366004613b50565b73ffffffffffffffffffffffffffffffffffffffff918216600090815260026020908152604080832093909416825291909152205490565b61039a61078c366004613b18565b61127d565b73ffffffffffffffffffffffffffffffffffffffff8116600090815260116020526040812081906107c1906113aa565b90506000427f000000000000000000000000000000000000000000000000000000000000000011610812577f0000000000000000000000000000000000000000000000000000000000000000610814565b425b905060005b825181101561088b5761086d8584838151811061085f577f4e487b7100000000000000000000000000000000000000000000000000000000600052603260045260246000fd5b6020026020010151846113be565b6108779085613fb2565b935080610883816141d2565b915050610819565b505050919050565b6060600480546108a29061417e565b80601f01602080910402602001604051908101604052809291908181526020018280546108ce9061417e565b801561091b5780601f106108f05761010080835404028352916020019161091b565b820191906000526020600020905b8154815290600101906020018083116108fe57829003601f168201915b5050505050905090565b600080427f000000000000000000000000000000000000000000000000000000000000000011610975577f0000000000000000000000000000000000000000000000000000000000000000610977565b425b90506109848484836113be565b949350505050565b6000610999338484611457565b5060015b92915050565b60006109b084848461160a565b73ffffffffffffffffffffffffffffffffffffffff8416600090815260026020908152604080832033845290915290205482811015610a76576040517f08c379a000000000000000000000000000000000000000000000000000000000815260206004820152602860248201527f45524332303a207472616e7366657220616d6f756e742065786365656473206160448201527f6c6c6f77616e636500000000000000000000000000000000000000000000000060648201526084015b60405180910390fd5b610a838533858403611457565b506001949350505050565b610a9c8686868686866118be565b505050505050565b610aae8133611943565b610b14576040517f08c379a000000000000000000000000000000000000000000000000000000000815260206004820152601760248201527f496e76616c696420636c61696d206f7065726174696f6e0000000000000000006044820152606401610a6d565b50565b33600081815260026020908152604080832073ffffffffffffffffffffffffffffffffffffffff871684529091528120549091610999918590610b5b908690613fb2565b611457565b610b69816119b2565b5050565b6060610b79600d6113aa565b905090565b600061099d600d83611ac7565b60005473ffffffffffffffffffffffffffffffffffffffff163314610c0c576040517f08c379a000000000000000000000000000000000000000000000000000000000815260206004820181905260248201527f4f776e61626c653a2063616c6c6572206973206e6f7420746865206f776e65726044820152606401610a6d565b610c166000611ad3565b565b6060600580546108a29061417e565b606061099d82611b48565b60005b81811015610d0c57610c9433848484818110610c7a577f4e487b7100000000000000000000000000000000000000000000000000000000600052603260045260246000fd5b9050602002016020810190610c8f9190613b18565b611b79565b610cfa576040517f08c379a000000000000000000000000000000000000000000000000000000000815260206004820152601960248201527f496e76616c696420756e7374616b65206f7065726174696f6e000000000000006044820152606401610a6d565b80610d04816141d2565b915050610c35565b505050565b33600090815260026020908152604080832073ffffffffffffffffffffffffffffffffffffffff8616845290915281205482811015610dd2576040517f08c379a000000000000000000000000000000000000000000000000000000000815260206004820152602560248201527f45524332303a2064656372656173656420616c6c6f77616e63652062656c6f7760448201527f207a65726f0000000000000000000000000000000000000000000000000000006064820152608401610a6d565b610ddf3385858403611457565b5060019392505050565b600061099933848461160a565b60005b81811015610d0c57610e5833848484818110610e3e577f4e487b7100000000000000000000000000000000000000000000000000000000600052603260045260246000fd5b9050602002016020810190610e539190613b18565b611d2e565b610ebe576040517f08c379a000000000000000000000000000000000000000000000000000000000815260206004820152601860248201527f496e76616c69642072656465656d206f7065726174696f6e00000000000000006044820152606401610a6d565b80610ec8816141d2565b915050610df9565b60005b82811015610f9057610f1833858584818110610e3e577f4e487b7100000000000000000000000000000000000000000000000000000000600052603260045260246000fd5b610f7e576040517f08c379a000000000000000000000000000000000000000000000000000000000815260206004820152601860248201527f496e76616c69642072656465656d206f7065726174696f6e00000000000000006044820152606401610a6d565b80610f88816141d2565b915050610ed3565b50610f9b8133611943565b610d0c576040517f08c379a000000000000000000000000000000000000000000000000000000000815260206004820152601760248201527f496e76616c696420636c61696d206f7065726174696f6e0000000000000000006044820152606401610a6d565b61101087878787878787611f15565b50505050505050565b60005b81811015610d0c5761107b33848484818110611061577f4e487b7100000000000000000000000000000000000000000000000000000000600052603260045260246000fd5b90506020020160208101906110769190613b18565b6122ba565b6110e1576040517f08c379a000000000000000000000000000000000000000000000000000000000815260206004820152601760248201527f496e76616c6964207374616b65206f7065726174696f6e0000000000000000006044820152606401610a6d565b806110eb816141d2565b91505061101c565b82811461115c576040517f08c379a000000000000000000000000000000000000000000000000000000000815260206004820152601560248201527f4d69736d61746368206172726179206c656e67746800000000000000000000006044820152606401610a6d565b60005b83811015611276576111fe338686848181106111a4577f4e487b7100000000000000000000000000000000000000000000000000000000600052603260045260246000fd5b90506020020160208101906111b99190613b18565b8585858181106111f2577f4e487b7100000000000000000000000000000000000000000000000000000000600052603260045260246000fd5b9050602002013561249a565b611264576040517f08c379a000000000000000000000000000000000000000000000000000000000815260206004820152601760248201527f496e76616c6964207374616b65206f7065726174696f6e0000000000000000006044820152606401610a6d565b8061126e816141d2565b91505061115f565b5050505050565b60005473ffffffffffffffffffffffffffffffffffffffff1633146112fe576040517f08c379a000000000000000000000000000000000000000000000000000000000815260206004820181905260248201527f4f776e61626c653a2063616c6c6572206973206e6f7420746865206f776e65726044820152606401610a6d565b73ffffffffffffffffffffffffffffffffffffffff81166113a1576040517f08c379a000000000000000000000000000000000000000000000000000000000815260206004820152602660248201527f4f776e61626c653a206e6577206f776e657220697320746865207a65726f206160448201527f64647265737300000000000000000000000000000000000000000000000000006064820152608401610a6d565b610b1481611ad3565b606060006113b783612afa565b9392505050565b73ffffffffffffffffffffffffffffffffffffffff83811660009081526010602090815260408083209386168352929052908120600281015490548184111561144e57600061140d8386614167565b73ffffffffffffffffffffffffffffffffffffffff87166000908152600f60205260409020805460019091015491925061144a9184919084612b56565b9350505b50509392505050565b73ffffffffffffffffffffffffffffffffffffffff83166114f9576040517f08c379a0000000000000000000000000000000000000000000000000000000008152602060048201526024808201527f45524332303a20617070726f76652066726f6d20746865207a65726f2061646460448201527f72657373000000000000000000000000000000000000000000000000000000006064820152608401610a6d565b73ffffffffffffffffffffffffffffffffffffffff821661159c576040517f08c379a000000000000000000000000000000000000000000000000000000000815260206004820152602260248201527f45524332303a20617070726f766520746f20746865207a65726f20616464726560448201527f73730000000000000000000000000000000000000000000000000000000000006064820152608401610a6d565b73ffffffffffffffffffffffffffffffffffffffff83811660008181526002602090815260408083209487168084529482529182902085905590518481527f8c5be1e5ebec7d5bd14f71427d1e84f3dd0314c0f7b2291e5b200ac8c7c3b925910160405180910390a3505050565b73ffffffffffffffffffffffffffffffffffffffff83166116ad576040517f08c379a000000000000000000000000000000000000000000000000000000000815260206004820152602560248201527f45524332303a207472616e736665722066726f6d20746865207a65726f20616460448201527f64726573730000000000000000000000000000000000000000000000000000006064820152608401610a6d565b73ffffffffffffffffffffffffffffffffffffffff8216611750576040517f08c379a000000000000000000000000000000000000000000000000000000000815260206004820152602360248201527f45524332303a207472616e7366657220746f20746865207a65726f206164647260448201527f65737300000000000000000000000000000000000000000000000000000000006064820152608401610a6d565b73ffffffffffffffffffffffffffffffffffffffff831660009081526001602052604090205481811015611806576040517f08c379a000000000000000000000000000000000000000000000000000000000815260206004820152602660248201527f45524332303a207472616e7366657220616d6f756e742065786365656473206260448201527f616c616e636500000000000000000000000000000000000000000000000000006064820152608401610a6d565b73ffffffffffffffffffffffffffffffffffffffff80851660009081526001602052604080822085850390559185168152908120805484929061184a908490613fb2565b925050819055508273ffffffffffffffffffffffffffffffffffffffff168473ffffffffffffffffffffffffffffffffffffffff167fddf252ad1be2c89b69c2b068fc378daa952ba7f163c4a11628f55a4df523b3ef846040516118b091815260200190565b60405180910390a350505050565b8315611935576118cf600d82612b8e565b611935576040517f08c379a000000000000000000000000000000000000000000000000000000000815260206004820152600e60248201527f6e6f6e20657869737420706f6f6c0000000000000000000000000000000000006044820152606401610a6d565b610a9c868686868686612bbd565b6000828152600a602052604081206004015480156119a85773ffffffffffffffffffffffffffffffffffffffff8084166000908152601060209081526040808320888452600a835281842060050154909416835292905220548110156119a857600080fd5b610984848461301c565b6000805473ffffffffffffffffffffffffffffffffffffffff163314611a34576040517f08c379a000000000000000000000000000000000000000000000000000000000815260206004820181905260248201527f4f776e61626c653a2063616c6c6572206973206e6f7420746865206f776e65726044820152606401610a6d565b427f00000000000000000000000000000000000000000000000000000000000000001115611abe576040517f08c379a000000000000000000000000000000000000000000000000000000000815260206004820152600f60248201527f4661726d2069732072756e6e696e6700000000000000000000000000000000006044820152606401610a6d565b61099d82613298565b60006113b78383613514565b6000805473ffffffffffffffffffffffffffffffffffffffff8381167fffffffffffffffffffffffff0000000000000000000000000000000000000000831681178455604051919092169283917f8be0079c531659141344cd1fd0a4f28419497f9722a3daafe3b4186f6b6457e09190a35050565b73ffffffffffffffffffffffffffffffffffffffff8116600090815260116020526040902060609061099d906113aa565b60007f00000000000000000000000000000000000000000000000000000000000000004211611c04576040517f08c379a000000000000000000000000000000000000000000000000000000000815260206004820152601160248201527f5374616b696e67206973206c6f636b65640000000000000000000000000000006044820152606401610a6d565b611c0e8383611d2e565b5073ffffffffffffffffffffffffffffffffffffffff8381166000818152601060209081526040808320948716808452948252808320805493905580518381524292810192909252919392917f18edd09e80386cd99df397e2e0d87d2bb259423eae08645e776321a36fe680ef91015b60405180910390a36040517fa9059cbb00000000000000000000000000000000000000000000000000000000815273ffffffffffffffffffffffffffffffffffffffff85811660048301526024820183905284169063a9059cbb90604401602060405180830381600087803b158015611cf657600080fd5b505af1158015611d0a573d6000803e3d6000fd5b505050506040513d601f19601f820116820180604052508101906109849190613e31565b73ffffffffffffffffffffffffffffffffffffffff82166000908152601160205260408120611d5d9083612b8e565b611dc3576040517f08c379a000000000000000000000000000000000000000000000000000000000815260206004820152600960248201527f4e6f6e20657869737400000000000000000000000000000000000000000000006044820152606401610a6d565b73ffffffffffffffffffffffffffffffffffffffff8084166000908152601060209081526040808320938616835292905220600201547f0000000000000000000000000000000000000000000000000000000000000000811015611f0e576000427f000000000000000000000000000000000000000000000000000000000000000011611e70577f0000000000000000000000000000000000000000000000000000000000000000611e72565b425b90506000611e818686846113be565b90508015611f0b5773ffffffffffffffffffffffffffffffffffffffff8681166000818152601060209081526040808320948a16808452948252918290204260029091018190558251868152918201527f3f693fff038bb8a046aa76d9516190ac7444f7d69cf952c4cbdc086fdef2d6fc910160405180910390a3611f068682613565565b600193505b50505b5092915050565b60005473ffffffffffffffffffffffffffffffffffffffff163314611f96576040517f08c379a000000000000000000000000000000000000000000000000000000000815260206004820181905260248201527f4f776e61626c653a2063616c6c6572206973206e6f7420746865206f776e65726044820152606401610a6d565b611fa08282613600565b600c54611fad9190613fb2565b600c819055606490611fc890670de0b6b3a764000090613fca565b1115612030576040517f08c379a000000000000000000000000000000000000000000000000000000000815260206004820152600a60248201527f65786365656420636170000000000000000000000000000000000000000000006044820152606401610a6d565b851580159061203e57508415155b801561204957508315155b801561205457508215155b801561205f57508115155b801561206a57508015155b801561208b575073ffffffffffffffffffffffffffffffffffffffff871615155b6120f1576040517f08c379a000000000000000000000000000000000000000000000000000000000815260206004820152601760248201527f5a65726f2076616c756573206e6f7420616c6c6f7765640000000000000000006044820152606401610a6d565b6120fc600d88612b8e565b15612163576040517f08c379a000000000000000000000000000000000000000000000000000000000815260206004820152601f60248201527f4475706c6963617465642076616c7565206973206e6f7420616c6c6f776564006044820152606401610a6d565b61216e600d88613623565b506040518060e001604052808781526020018681526020018581526020018481526020016000815260200183815260200182815250600f60008973ffffffffffffffffffffffffffffffffffffffff1673ffffffffffffffffffffffffffffffffffffffff168152602001908152602001600020600082015181600001556020820151816001015560408201518160020155606082015181600301556080820151816004015560a0820151816005015560c082015181600601559050507f7f8e778ea5a2b6d01c30940e77a7bc8973710ae3df7a9621a0eb875dc0ea6a2d878787878787876040516122a9979695949392919073ffffffffffffffffffffffffffffffffffffffff979097168752602087019590955260408601939093526060850191909152608084015260a083015260c082015260e00190565b60405180910390a150505050505050565b6000427f000000000000000000000000000000000000000000000000000000000000000011612345576040517f08c379a000000000000000000000000000000000000000000000000000000000815260206004820152601160248201527f5374616b696e67206973206c6f636b65640000000000000000000000000000006044820152606401610a6d565b73ffffffffffffffffffffffffffffffffffffffff8084166000908152601060209081526040808320938616835292815282822054600f909152919020600401548111156123ef576040517f08c379a000000000000000000000000000000000000000000000000000000000815260206004820152601960248201527f496e76616c696420756e7374616b65206f7065726174696f6e000000000000006044820152606401610a6d565b73ffffffffffffffffffffffffffffffffffffffff83166000908152600f602052604081206004018054839290612427908490614167565b909155505073ffffffffffffffffffffffffffffffffffffffff848116600081815260106020908152604080832094881680845294825280832092909255815185815242918101919091527f18edd09e80386cd99df397e2e0d87d2bb259423eae08645e776321a36fe680ef9101611c7e565b60008383837f00000000000000000000000000000000000000000000000000000000000000004210612528576040517f08c379a000000000000000000000000000000000000000000000000000000000815260206004820152601160248201527f5374616b696e67206973206c6f636b65640000000000000000000000000000006044820152606401610a6d565b612533600d83612b8e565b612599576040517f08c379a000000000000000000000000000000000000000000000000000000000815260206004820152600f60248201527f6e6f6e2065786973746520706f6f6c00000000000000000000000000000000006044820152606401610a6d565b73ffffffffffffffffffffffffffffffffffffffff82166000908152600f602052604090206002015481101561262b576040517f08c379a000000000000000000000000000000000000000000000000000000000815260206004820152601c60248201527f6c657373207468616e20746865206d696e696d756d20616d6f756e74000000006044820152606401610a6d565b6040517fdd62ed3e00000000000000000000000000000000000000000000000000000000815273ffffffffffffffffffffffffffffffffffffffff848116600483015230602483015282919084169063dd62ed3e9060440160206040518083038186803b15801561269b57600080fd5b505afa1580156126af573d6000803e3d6000fd5b505050506040513d601f19601f820116820180604052508101906126d39190613e69565b101561273b576040517f08c379a000000000000000000000000000000000000000000000000000000000815260206004820152600b60248201527f6e6f7420616c6c6f7765640000000000000000000000000000000000000000006044820152606401610a6d565b73ffffffffffffffffffffffffffffffffffffffff86166000908152600f602052604081206004015461276f908790613fb2565b73ffffffffffffffffffffffffffffffffffffffff88166000908152600f6020526040902060030154909150811115612804576040517f08c379a000000000000000000000000000000000000000000000000000000000815260206004820152601860248201527f5374616b653a20506f6f6c2043617020657863656564656400000000000000006044820152606401610a6d565b73ffffffffffffffffffffffffffffffffffffffff8816600090815260116020526040902086906128359089612b8e565b1561287f5773ffffffffffffffffffffffffffffffffffffffff808a166000908152601060209081526040808320938c1683529290522054612878908890613fb2565b90506128b0565b73ffffffffffffffffffffffffffffffffffffffff891660009081526011602052604090206128ae9089613623565b505b81600f60008a73ffffffffffffffffffffffffffffffffffffffff1673ffffffffffffffffffffffffffffffffffffffff1681526020019081526020016000206004018190555060405180606001604052808281526020014281526020017f0000000000000000000000000000000000000000000000000000000000000000815250601060008b73ffffffffffffffffffffffffffffffffffffffff1673ffffffffffffffffffffffffffffffffffffffff16815260200190815260200160002060008a73ffffffffffffffffffffffffffffffffffffffff1673ffffffffffffffffffffffffffffffffffffffff1681526020019081526020016000206000820151816000015560208201518160010155604082015181600201559050508773ffffffffffffffffffffffffffffffffffffffff168973ffffffffffffffffffffffffffffffffffffffff167f63602d0ecc7b3a0ef7ff1a116e23056662d64280355ba8031b6d0d767c4b44588942604051612a37929190918252602082015260400190565b60405180910390a36040517f23b872dd00000000000000000000000000000000000000000000000000000000815273ffffffffffffffffffffffffffffffffffffffff8a81166004830152306024830152604482018990528916906323b872dd90606401602060405180830381600087803b158015612ab557600080fd5b505af1158015612ac9573d6000803e3d6000fd5b505050506040513d601f19601f82011682018060405250810190612aed9190613e31565b9998505050505050505050565b606081600001805480602002602001604051908101604052809291908181526020018280548015612b4a57602002820191906000526020600020905b815481526020019060010190808311612b36575b50505050509050919050565b600080612b6e612b6785606461412a565b8690613600565b612b78908761412a565b9050612b848184613645565b9695505050505050565b73ffffffffffffffffffffffffffffffffffffffff8116600090815260018301602052604081205415156113b7565b60005473ffffffffffffffffffffffffffffffffffffffff163314612c3e576040517f08c379a000000000000000000000000000000000000000000000000000000000815260206004820181905260248201527f4f776e61626c653a2063616c6c6572206973206e6f7420746865206f776e65726044820152606401610a6d565b8415801590612c62575073ffffffffffffffffffffffffffffffffffffffff831615155b8015612c83575073ffffffffffffffffffffffffffffffffffffffff821615155b612ce9576040517f08c379a000000000000000000000000000000000000000000000000000000000815260206004820152601760248201527f5a65726f2076616c756573206e6f7420616c6c6f7765640000000000000000006044820152606401610a6d565b6040517f081812fc00000000000000000000000000000000000000000000000000000000815260048101879052309073ffffffffffffffffffffffffffffffffffffffff85169063081812fc9060240160206040518083038186803b158015612d5157600080fd5b505afa158015612d65573d6000803e3d6000fd5b505050506040513d601f19601f82011682018060405250810190612d899190613b34565b73ffffffffffffffffffffffffffffffffffffffff161480612e4b57506040517fe985e9c500000000000000000000000000000000000000000000000000000000815273ffffffffffffffffffffffffffffffffffffffff838116600483015230602483015284169063e985e9c59060440160206040518083038186803b158015612e1357600080fd5b505afa158015612e27573d6000803e3d6000fd5b505050506040513d601f19601f82011682018060405250810190612e4b9190613e31565b612eb1576040517f08c379a000000000000000000000000000000000000000000000000000000000815260206004820152600c60248201527f4e6f7420617070726f76656400000000000000000000000000000000000000006044820152606401610a6d565b6040805160c08101825273ffffffffffffffffffffffffffffffffffffffff808616825284811660208084019182528385018b8152606085018b8152608086018b815288861660a088019081526009546000908152600a909552978420965187549087167fffffffffffffffffffffffff000000000000000000000000000000000000000091821617885594516001880180549188169187169190911790559151600287015551600386015551600485015593516005909301805493909216921691909117905560078054879290612f8a908490613fb2565b909155505060098054906000612f9f836141d2565b90915550506040805173ffffffffffffffffffffffffffffffffffffffff83811682526020820189905291810187905260608101869052426080820152818516918416907f700053cd107377aa59290948ce358a84e039c1bdad2494b74d22dd63d11787e39060a00160405180910390a36110108387843061365d565b6000828152600a60205260408120600301548061305b8473ffffffffffffffffffffffffffffffffffffffff1660009081526001602052604090205490565b10156130c3576040517f08c379a000000000000000000000000000000000000000000000000000000000815260206004820152601160248201527f496e73756666696369656e742066756e640000000000000000000000000000006044820152606401610a6d565b6130cd8382613772565b6000848152600a602052604090819020805460029091015491517f6352211e0000000000000000000000000000000000000000000000000000000081526004810183905273ffffffffffffffffffffffffffffffffffffffff909116919030908390636352211e9060240160206040518083038186803b15801561315057600080fd5b505afa158015613164573d6000803e3d6000fd5b505050506040513d601f19601f820116820180604052508101906131889190613b34565b73ffffffffffffffffffffffffffffffffffffffff1614613205576040517f08c379a000000000000000000000000000000000000000000000000000000000815260206004820152600c60248201527f556e417574686f72697a656400000000000000000000000000000000000000006044820152606401610a6d565b8173ffffffffffffffffffffffffffffffffffffffff168573ffffffffffffffffffffffffffffffffffffffff167f17db246e2b79d27e01c800967d89cbee46000807213e933b6e4c4fddac899a78888442604051613277939291909283526020830191909152604082015260600190565b60405180910390a361328b8282308861365d565b5060019695505050505050565b6000818152600a60205260408120600301546132b360035490565b1015613341576040517f08c379a000000000000000000000000000000000000000000000000000000000815260206004820152602260248201527f43616e206e6f742072656c656173652c2075736572732063616e2073656c6c2060448201527f69740000000000000000000000000000000000000000000000000000000000006064820152608401610a6d565b6000828152600a6020526040908190208054600182015460029092015492517f6352211e0000000000000000000000000000000000000000000000000000000081526004810184905273ffffffffffffffffffffffffffffffffffffffff91821693919092169130908490636352211e9060240160206040518083038186803b1580156133cd57600080fd5b505afa1580156133e1573d6000803e3d6000fd5b505050506040513d601f19601f820116820180604052508101906134059190613b34565b73ffffffffffffffffffffffffffffffffffffffff1614613482576040517f08c379a000000000000000000000000000000000000000000000000000000000815260206004820152600c60248201527f556e417574686f72697a656400000000000000000000000000000000000000006044820152606401610a6d565b8273ffffffffffffffffffffffffffffffffffffffff168273ffffffffffffffffffffffffffffffffffffffff167fc5e594fd91506aa39ba7b825e73f11e6db93567d501772ff7af6981f006fd3318784426040516134f4939291909283526020830191909152604082015260600190565b60405180910390a36135088382308561365d565b50600195945050505050565b6000826000018281548110613552577f4e487b7100000000000000000000000000000000000000000000000000000000600052603260045260246000fd5b9060005260206000200154905092915050565b600754816008546135769190613fb2565b11156135de576040517f08c379a000000000000000000000000000000000000000000000000000000000815260206004820152601260248201527f4d696e743a2063617020657863656564656400000000000000000000000000006044820152606401610a6d565b80600860008282546135f09190613fb2565b90915550610b699050828261395f565b60008161360f6012600a614064565b613619908561412a565b6113b79190613fca565b60006113b78373ffffffffffffffffffffffffffffffffffffffff8416613a7f565b60006136536012600a614064565b613619838561412a565b6000600260065414156136cc576040517f08c379a000000000000000000000000000000000000000000000000000000000815260206004820152601f60248201527f5265656e7472616e637947756172643a207265656e7472616e742063616c6c006044820152606401610a6d565b60026006556040517f42842e0e00000000000000000000000000000000000000000000000000000000815273ffffffffffffffffffffffffffffffffffffffff84811660048301528381166024830152604482018690528616906342842e0e90606401600060405180830381600087803b15801561374957600080fd5b505af115801561375d573d6000803e3d6000fd5b50505050600190506001600655949350505050565b73ffffffffffffffffffffffffffffffffffffffff8216613815576040517f08c379a000000000000000000000000000000000000000000000000000000000815260206004820152602160248201527f45524332303a206275726e2066726f6d20746865207a65726f2061646472657360448201527f73000000000000000000000000000000000000000000000000000000000000006064820152608401610a6d565b73ffffffffffffffffffffffffffffffffffffffff8216600090815260016020526040902054818110156138cb576040517f08c379a000000000000000000000000000000000000000000000000000000000815260206004820152602260248201527f45524332303a206275726e20616d6f756e7420657863656564732062616c616e60448201527f63650000000000000000000000000000000000000000000000000000000000006064820152608401610a6d565b73ffffffffffffffffffffffffffffffffffffffff83166000908152600160205260408120838303905560038054849290613907908490614167565b909155505060405182815260009073ffffffffffffffffffffffffffffffffffffffff8516907fddf252ad1be2c89b69c2b068fc378daa952ba7f163c4a11628f55a4df523b3ef9060200160405180910390a3505050565b73ffffffffffffffffffffffffffffffffffffffff82166139dc576040517f08c379a000000000000000000000000000000000000000000000000000000000815260206004820152601f60248201527f45524332303a206d696e7420746f20746865207a65726f2061646472657373006044820152606401610a6d565b80600360008282546139ee9190613fb2565b909155505073ffffffffffffffffffffffffffffffffffffffff821660009081526001602052604081208054839290613a28908490613fb2565b909155505060405181815273ffffffffffffffffffffffffffffffffffffffff8316906000907fddf252ad1be2c89b69c2b068fc378daa952ba7f163c4a11628f55a4df523b3ef9060200160405180910390a35050565b6000818152600183016020526040812054613ac65750815460018181018455600084815260208082209093018490558454848252828601909352604090209190915561099d565b50600061099d565b60008083601f840112613adf578081fd5b50813567ffffffffffffffff811115613af6578182fd5b6020830191508360208260051b8501011115613b1157600080fd5b9250929050565b600060208284031215613b29578081fd5b81356113b781614269565b600060208284031215613b45578081fd5b81516113b781614269565b60008060408385031215613b62578081fd5b8235613b6d81614269565b91506020830135613b7d81614269565b809150509250929050565b600080600060608486031215613b9c578081fd5b8335613ba781614269565b92506020840135613bb781614269565b929592945050506040919091013590565b60008060008060808587031215613bdd578081fd5b8435613be881614269565b93506020850135613bf881614269565b925060408501359150606085013567ffffffffffffffff80821115613c1b578283fd5b818701915087601f830112613c2e578283fd5b813581811115613c4057613c4061423a565b604051601f82017fffffffffffffffffffffffffffffffffffffffffffffffffffffffffffffffe0908116603f01168101908382118183101715613c8657613c8661423a565b816040528281528a6020848701011115613c9e578586fd5b82602086016020830137918201602001949094529598949750929550505050565b60008060408385031215613cd1578182fd5b8235613cdc81614269565b946020939093013593505050565b600080600080600080600060e0888a031215613d04578283fd5b8735613d0f81614269565b9960208901359950604089013598606081013598506080810135975060a0810135965060c00135945092505050565b60008060208385031215613d50578182fd5b823567ffffffffffffffff811115613d66578283fd5b613d7285828601613ace565b90969095509350505050565b60008060008060408587031215613d93578384fd5b843567ffffffffffffffff80821115613daa578586fd5b613db688838901613ace565b90965094506020870135915080821115613dce578384fd5b50613ddb87828801613ace565b95989497509550505050565b600080600060408486031215613dfb578283fd5b833567ffffffffffffffff811115613e11578384fd5b613e1d86828701613ace565b909790965060209590950135949350505050565b600060208284031215613e42578081fd5b815180151581146113b7578182fd5b600060208284031215613e62578081fd5b5035919050565b600060208284031215613e7a578081fd5b5051919050565b60008060008060008060c08789031215613e99578384fd5b8635955060208701359450604087013593506060870135613eb981614269565b92506080870135613ec981614269565b915060a0870135613ed981614269565b809150509295509295509295565b6020808252825182820181905260009190848201906040850190845b81811015613f3557835173ffffffffffffffffffffffffffffffffffffffff1683529284019291840191600101613f03565b50909695505050505050565b6000602080835283518082850152825b81811015613f6d57858101830151858201604001528201613f51565b81811115613f7e5783604083870101525b50601f017fffffffffffffffffffffffffffffffffffffffffffffffffffffffffffffffe016929092016040019392505050565b60008219821115613fc557613fc561420b565b500190565b600082613ffe577f4e487b710000000000000000000000000000000000000000000000000000000081526012600452602481fd5b500490565b600181815b8085111561405c57817fffffffffffffffffffffffffffffffffffffffffffffffffffffffffffffffff048211156140425761404261420b565b8085161561404f57918102915b93841c9390800290614008565b509250929050565b60006113b7838360008261407a5750600161099d565b816140875750600061099d565b816001811461409d57600281146140a7576140c3565b600191505061099d565b60ff8411156140b8576140b861420b565b50506001821b61099d565b5060208310610133831016604e8410600b84101617156140e6575081810a61099d565b6140f08383614003565b807fffffffffffffffffffffffffffffffffffffffffffffffffffffffffffffffff048211156141225761412261420b565b029392505050565b6000817fffffffffffffffffffffffffffffffffffffffffffffffffffffffffffffffff04831182151516156141625761416261420b565b500290565b6000828210156141795761417961420b565b500390565b600181811c9082168061419257607f821691505b602082108114156141cc577f4e487b7100000000000000000000000000000000000000000000000000000000600052602260045260246000fd5b50919050565b60007fffffffffffffffffffffffffffffffffffffffffffffffffffffffffffffffff8214156142045761420461420b565b5060010190565b7f4e487b7100000000000000000000000000000000000000000000000000000000600052601160045260246000fd5b7f4e487b7100000000000000000000000000000000000000000000000000000000600052604160045260246000fd5b73ffffffffffffffffffffffffffffffffffffffff81168114610b1457600080fdfea26469706673582212200e4b0c323a3bba9090227d6bb2671e9b86e857f53f6419cabeb5283a1dd8545964736f6c63430008040033",
  "devdoc": {
    "kind": "dev",
    "methods": {
      "addPool(address,uint256,uint256,uint256,uint256,uint256,uint256)": {
        "details": "only owner can call it",
        "params": {
          "_minimumStake": "minimum amount user should stake in order to participatin in this pool",
          "_shareAPR": "perenage numerator of the pool APR generated",
          "_shareAPRBase": "perenage denominator of the pool APR generated",
          "_token": "erc20 token address",
          "_totalShare": "perenage numerator of pool share of the farm overall points",
          "_totalShareBase": "perenage denominator of pool share of the farm overall points",
          "cap_": "the maxmum amount of token to be staked in this pool"
        }
      },
      "addTokenReward(uint256,uint256,uint256,address,address,address)": {
        "details": "only owner can call itnft point increase the RSFTI cap",
        "params": {
          "_minimumStakeRequired": "optional, for projects the would enforce user to stake their token in order to calim their rewards",
          "_nftAddress": "nft contract address",
          "_priceInPoint": "how many point required to calim it",
          "_tokenId": "nft token id",
          "_tokenLinked": "optinal , pool token address, only if `_minimumStakeRequired` is used to check if the staker is participating in the pool",
          "owner_": "the owner of this nft , this is used as well to return the nft back if no one calim it with no points left in the farm"
        }
      },
      "allowance(address,address)": {
        "details": "See {IERC20-allowance}."
      },
      "approve(address,uint256)": {
        "details": "See {IERC20-approve}. Requirements: - `spender` cannot be the zero address."
      },
      "balanceOf(address)": {
        "details": "See {IERC20-balanceOf}."
      },
      "claim(uint256)": {
        "params": {
          "key": "nft id"
        }
      },
      "decimals()": {
        "details": "Returns the number of decimals used to get its user representation. For example, if `decimals` equals `2`, a balance of `505` tokens should be displayed to a user as `5.05` (`505 / 10 ** 2`). Tokens usually opt for a value of 18, imitating the relationship between Ether and Wei. This is the value {ERC20} uses, unless this function is overridden; NOTE: This information is only used for _display_ purposes: it in no way affects any of the arithmetic of the contract, including {IERC20-balanceOf} and {IERC20-transfer}."
      },
      "decreaseAllowance(address,uint256)": {
        "details": "Atomically decreases the allowance granted to `spender` by the caller. This is an alternative to {approve} that can be used as a mitigation for problems described in {IERC20-approve}. Emits an {Approval} event indicating the updated allowance. Requirements: - `spender` cannot be the zero address. - `spender` must have allowance for the caller of at least `subtractedValue`."
      },
      "getUserPools(address)": {
        "params": {
          "user": "user address"
        },
        "returns": {
          "currentUserPools": "user's pool addresses"
        }
      },
      "increaseAllowance(address,uint256)": {
        "details": "Atomically increases the allowance granted to `spender` by the caller. This is an alternative to {approve} that can be used as a mitigation for problems described in {IERC20-approve}. Emits an {Approval} event indicating the updated allowance. Requirements: - `spender` cannot be the zero address."
      },
      "name()": {
        "details": "Returns the name of the token."
      },
      "onERC721Received(address,address,uint256,bytes)": {
        "details": "See {IERC721Receiver-onERC721Received}. Always returns `IERC721Receiver.onERC721Received.selector`."
      },
      "owner()": {
        "details": "Returns the address of the current owner."
      },
      "redeemAndClaim(address[],uint256)": {
        "params": {
          "_tokens": "array of pool tokens address",
          "key": "nft id"
        }
      },
      "redeemBatch(address[])": {
        "params": {
          "_tokens": "array of pool tokens address"
        }
      },
      "releaseNFT(uint256)": {
        "details": "only  owner can call itcalled only after the `_timeToRelease`"
      },
      "renounceOwnership()": {
        "details": "Leaves the contract without owner. It will not be possible to call `onlyOwner` functions anymore. Can only be called by the current owner. NOTE: Renouncing ownership will leave the contract without an owner, thereby removing any functionality that is only available to the owner."
      },
      "stakeBatch(address[],uint256[])": {
        "details": "ony before launch time,both function arguments length must be identical",
        "params": {
          "_amounts": "array of values to be staked for each pool",
          "_tokens": "array of pool tokens address"
        }
      },
      "symbol()": {
        "details": "Returns the symbol of the token, usually a shorter version of the name."
      },
      "totalSupply()": {
        "details": "See {IERC20-totalSupply}."
      },
      "transfer(address,uint256)": {
        "details": "See {IERC20-transfer}. Requirements: - `recipient` cannot be the zero address. - the caller must have a balance of at least `amount`."
      },
      "transferFrom(address,address,uint256)": {
        "details": "See {IERC20-transferFrom}. Emits an {Approval} event indicating the updated allowance. This is not required by the EIP. See the note at the beginning of {ERC20}. Requirements: - `sender` and `recipient` cannot be the zero address. - `sender` must have a balance of at least `amount`. - the caller must have allowance for ``sender``'s tokens of at least `amount`."
      },
      "transferOwnership(address)": {
        "details": "Transfers ownership of the contract to a new account (`newOwner`). Can only be called by the current owner."
      },
      "unStakeEarlyBatch(address[])": {
        "details": "only before launchtimeonly staker can call it",
        "params": {
          "_tokens": "array of pool tokens address"
        }
      },
      "unstakeBatch(address[])": {
        "params": {
          "_tokens": "array of pool tokens address"
        }
      },
      "userPoolDetails(address,address)": {
        "returns": {
          "amount": "user stakes in this pool",
          "lastRewardBlock": "last redeeming time",
          "stakeTime": " time of staking"
        }
      },
      "userPoolReward(address,address)": {
        "params": {
          "_token": "pool token address",
          "_user": "user address"
        },
        "returns": {
          "_totalRewards": "number of rewards"
        }
      },
      "userRewards(address)": {
        "params": {
          "user": "user address"
        },
        "returns": {
          "_totalRewards": "number of rewards"
        }
      }
    },
    "title": "Startfi farm contract where users stake their tokens and get NFT as rewards",
    "version": 1
  },
  "userdoc": {
    "kind": "user",
    "methods": {
      "addPool(address,uint256,uint256,uint256,uint256,uint256,uint256)": {
        "notice": "create new pool"
      },
      "addTokenReward(uint256,uint256,uint256,address,address,address)": {
        "notice": "add the nft rewards that users will claim"
      },
      "releaseNFT(uint256)": {
        "notice": "to protect nfts from being locked in the contract , owner can call it after the time to release and return it back to the original owner as long as minted point is less than the reward `_priceInPoint`"
      },
      "stakeBatch(address[],uint256[])": {
        "notice": "let user to stake in maltible pools in a single transaction"
      },
      "unStakeEarlyBatch(address[])": {
        "notice": "before the farm starts, Let user unstake token from many pools at once"
      },
      "userPoolReward(address,address)": {
        "notice": "calculate user rewards at the call time ( between launchtime to deadline) in a certain pool"
      },
      "userRewards(address)": {
        "notice": "calculate user rewards at the call time ( between launchtime (or last redeem time) to deadline) in all user pools"
      }
    },
    "version": 1
  },
  "storageLayout": {
    "storage": [
      {
        "astId": 591,
        "contract": "contracts/StartfiFarm.sol:StartfiFarm",
        "label": "_owner",
        "offset": 0,
        "slot": "0",
        "type": "t_address"
      },
      {
        "astId": 835,
        "contract": "contracts/StartfiFarm.sol:StartfiFarm",
        "label": "_balances",
        "offset": 0,
        "slot": "1",
        "type": "t_mapping(t_address,t_uint256)"
      },
      {
        "astId": 841,
        "contract": "contracts/StartfiFarm.sol:StartfiFarm",
        "label": "_allowances",
        "offset": 0,
        "slot": "2",
        "type": "t_mapping(t_address,t_mapping(t_address,t_uint256))"
      },
      {
        "astId": 843,
        "contract": "contracts/StartfiFarm.sol:StartfiFarm",
        "label": "_totalSupply",
        "offset": 0,
        "slot": "3",
        "type": "t_uint256"
      },
      {
        "astId": 845,
        "contract": "contracts/StartfiFarm.sol:StartfiFarm",
        "label": "_name",
        "offset": 0,
        "slot": "4",
        "type": "t_string_storage"
      },
      {
        "astId": 847,
        "contract": "contracts/StartfiFarm.sol:StartfiFarm",
        "label": "_symbol",
        "offset": 0,
        "slot": "5",
        "type": "t_string_storage"
      },
      {
        "astId": 790,
        "contract": "contracts/StartfiFarm.sol:StartfiFarm",
        "label": "_status",
        "offset": 0,
        "slot": "6",
        "type": "t_uint256"
      },
      {
        "astId": 4901,
        "contract": "contracts/StartfiFarm.sol:StartfiFarm",
        "label": "_cap",
        "offset": 0,
        "slot": "7",
        "type": "t_uint256"
      },
      {
        "astId": 4903,
        "contract": "contracts/StartfiFarm.sol:StartfiFarm",
        "label": "_mintedPoints",
        "offset": 0,
        "slot": "8",
        "type": "t_uint256"
      },
      {
        "astId": 4905,
        "contract": "contracts/StartfiFarm.sol:StartfiFarm",
        "label": "_tokenCount",
        "offset": 0,
        "slot": "9",
        "type": "t_uint256"
      },
      {
        "astId": 4923,
        "contract": "contracts/StartfiFarm.sol:StartfiFarm",
        "label": "rewardTokens",
        "offset": 0,
        "slot": "10",
        "type": "t_mapping(t_uint256,t_struct(tokenDetails)4918_storage)"
      },
      {
        "astId": 4441,
        "contract": "contracts/StartfiFarm.sol:StartfiFarm",
        "label": "_RstfiMaxSupply",
        "offset": 0,
        "slot": "11",
        "type": "t_uint256"
      },
      {
        "astId": 4443,
        "contract": "contracts/StartfiFarm.sol:StartfiFarm",
        "label": "totalShares",
        "offset": 0,
        "slot": "12",
        "type": "t_uint256"
      },
      {
        "astId": 4461,
        "contract": "contracts/StartfiFarm.sol:StartfiFarm",
        "label": "_poolsSet",
        "offset": 0,
        "slot": "13",
        "type": "t_struct(AddressSet)4131_storage"
      },
      {
        "astId": 4466,
        "contract": "contracts/StartfiFarm.sol:StartfiFarm",
        "label": "_pools",
        "offset": 0,
        "slot": "15",
        "type": "t_mapping(t_address,t_struct(poolDetails)4458_storage)"
      },
      {
        "astId": 5732,
        "contract": "contracts/StartfiFarm.sol:StartfiFarm",
        "label": "userPools",
        "offset": 0,
        "slot": "16",
        "type": "t_mapping(t_address,t_mapping(t_address,t_struct(userPool)5725_storage))"
      },
      {
        "astId": 5737,
        "contract": "contracts/StartfiFarm.sol:StartfiFarm",
        "label": "_userToPools",
        "offset": 0,
        "slot": "17",
        "type": "t_mapping(t_address,t_struct(AddressSet)4131_storage)"
      }
    ],
    "types": {
      "t_address": {
        "encoding": "inplace",
        "label": "address",
        "numberOfBytes": "20"
      },
      "t_array(t_bytes32)dyn_storage": {
        "base": "t_bytes32",
        "encoding": "dynamic_array",
        "label": "bytes32[]",
        "numberOfBytes": "32"
      },
      "t_bytes32": {
        "encoding": "inplace",
        "label": "bytes32",
        "numberOfBytes": "32"
      },
      "t_mapping(t_address,t_mapping(t_address,t_struct(userPool)5725_storage))": {
        "encoding": "mapping",
        "key": "t_address",
        "label": "mapping(address => mapping(address => struct UserPools.userPool))",
        "numberOfBytes": "32",
        "value": "t_mapping(t_address,t_struct(userPool)5725_storage)"
      },
      "t_mapping(t_address,t_mapping(t_address,t_uint256))": {
        "encoding": "mapping",
        "key": "t_address",
        "label": "mapping(address => mapping(address => uint256))",
        "numberOfBytes": "32",
        "value": "t_mapping(t_address,t_uint256)"
      },
      "t_mapping(t_address,t_struct(AddressSet)4131_storage)": {
        "encoding": "mapping",
        "key": "t_address",
        "label": "mapping(address => struct EnumerableSet.AddressSet)",
        "numberOfBytes": "32",
        "value": "t_struct(AddressSet)4131_storage"
      },
      "t_mapping(t_address,t_struct(poolDetails)4458_storage)": {
        "encoding": "mapping",
        "key": "t_address",
        "label": "mapping(address => struct FarmPools.poolDetails)",
        "numberOfBytes": "32",
        "value": "t_struct(poolDetails)4458_storage"
      },
      "t_mapping(t_address,t_struct(userPool)5725_storage)": {
        "encoding": "mapping",
        "key": "t_address",
        "label": "mapping(address => struct UserPools.userPool)",
        "numberOfBytes": "32",
        "value": "t_struct(userPool)5725_storage"
      },
      "t_mapping(t_address,t_uint256)": {
        "encoding": "mapping",
        "key": "t_address",
        "label": "mapping(address => uint256)",
        "numberOfBytes": "32",
        "value": "t_uint256"
      },
      "t_mapping(t_bytes32,t_uint256)": {
        "encoding": "mapping",
        "key": "t_bytes32",
        "label": "mapping(bytes32 => uint256)",
        "numberOfBytes": "32",
        "value": "t_uint256"
      },
      "t_mapping(t_uint256,t_struct(tokenDetails)4918_storage)": {
        "encoding": "mapping",
        "key": "t_uint256",
        "label": "mapping(uint256 => struct FarmTokens.tokenDetails)",
        "numberOfBytes": "32",
        "value": "t_struct(tokenDetails)4918_storage"
      },
      "t_string_storage": {
        "encoding": "bytes",
        "label": "string",
        "numberOfBytes": "32"
      },
      "t_struct(AddressSet)4131_storage": {
        "encoding": "inplace",
        "label": "struct EnumerableSet.AddressSet",
        "members": [
          {
            "astId": 4130,
            "contract": "contracts/StartfiFarm.sol:StartfiFarm",
            "label": "_inner",
            "offset": 0,
            "slot": "0",
            "type": "t_struct(Set)3830_storage"
          }
        ],
        "numberOfBytes": "64"
      },
      "t_struct(Set)3830_storage": {
        "encoding": "inplace",
        "label": "struct EnumerableSet.Set",
        "members": [
          {
            "astId": 3825,
            "contract": "contracts/StartfiFarm.sol:StartfiFarm",
            "label": "_values",
            "offset": 0,
            "slot": "0",
            "type": "t_array(t_bytes32)dyn_storage"
          },
          {
            "astId": 3829,
            "contract": "contracts/StartfiFarm.sol:StartfiFarm",
            "label": "_indexes",
            "offset": 0,
            "slot": "1",
            "type": "t_mapping(t_bytes32,t_uint256)"
          }
        ],
        "numberOfBytes": "64"
      },
      "t_struct(poolDetails)4458_storage": {
        "encoding": "inplace",
        "label": "struct FarmPools.poolDetails",
        "members": [
          {
            "astId": 4445,
            "contract": "contracts/StartfiFarm.sol:StartfiFarm",
            "label": "shareAPR",
            "offset": 0,
            "slot": "0",
            "type": "t_uint256"
          },
          {
            "astId": 4447,
            "contract": "contracts/StartfiFarm.sol:StartfiFarm",
            "label": "shareAPRBase",
            "offset": 0,
            "slot": "1",
            "type": "t_uint256"
          },
          {
            "astId": 4449,
            "contract": "contracts/StartfiFarm.sol:StartfiFarm",
            "label": "minimumStake",
            "offset": 0,
            "slot": "2",
            "type": "t_uint256"
          },
          {
            "astId": 4451,
            "contract": "contracts/StartfiFarm.sol:StartfiFarm",
            "label": "cap",
            "offset": 0,
            "slot": "3",
            "type": "t_uint256"
          },
          {
            "astId": 4453,
            "contract": "contracts/StartfiFarm.sol:StartfiFarm",
            "label": "totalSupply",
            "offset": 0,
            "slot": "4",
            "type": "t_uint256"
          },
          {
            "astId": 4455,
            "contract": "contracts/StartfiFarm.sol:StartfiFarm",
            "label": "totalShare",
            "offset": 0,
            "slot": "5",
            "type": "t_uint256"
          },
          {
            "astId": 4457,
            "contract": "contracts/StartfiFarm.sol:StartfiFarm",
            "label": "totalShareBase",
            "offset": 0,
            "slot": "6",
            "type": "t_uint256"
          }
        ],
        "numberOfBytes": "224"
      },
      "t_struct(tokenDetails)4918_storage": {
        "encoding": "inplace",
        "label": "struct FarmTokens.tokenDetails",
        "members": [
          {
            "astId": 4907,
            "contract": "contracts/StartfiFarm.sol:StartfiFarm",
            "label": "nftAddress",
            "offset": 0,
            "slot": "0",
            "type": "t_address"
          },
          {
            "astId": 4909,
            "contract": "contracts/StartfiFarm.sol:StartfiFarm",
            "label": "owner",
            "offset": 0,
            "slot": "1",
            "type": "t_address"
          },
          {
            "astId": 4911,
            "contract": "contracts/StartfiFarm.sol:StartfiFarm",
            "label": "tokenId",
            "offset": 0,
            "slot": "2",
            "type": "t_uint256"
          },
          {
            "astId": 4913,
            "contract": "contracts/StartfiFarm.sol:StartfiFarm",
            "label": "priceInPoint",
            "offset": 0,
            "slot": "3",
            "type": "t_uint256"
          },
          {
            "astId": 4915,
            "contract": "contracts/StartfiFarm.sol:StartfiFarm",
            "label": "minimumStakeRequired",
            "offset": 0,
            "slot": "4",
            "type": "t_uint256"
          },
          {
            "astId": 4917,
            "contract": "contracts/StartfiFarm.sol:StartfiFarm",
            "label": "tokenLinked",
            "offset": 0,
            "slot": "5",
            "type": "t_address"
          }
        ],
        "numberOfBytes": "192"
      },
      "t_struct(userPool)5725_storage": {
        "encoding": "inplace",
        "label": "struct UserPools.userPool",
        "members": [
          {
            "astId": 5720,
            "contract": "contracts/StartfiFarm.sol:StartfiFarm",
            "label": "amount",
            "offset": 0,
            "slot": "0",
            "type": "t_uint256"
          },
          {
            "astId": 5722,
            "contract": "contracts/StartfiFarm.sol:StartfiFarm",
            "label": "stakeTime",
            "offset": 0,
            "slot": "1",
            "type": "t_uint256"
          },
          {
            "astId": 5724,
            "contract": "contracts/StartfiFarm.sol:StartfiFarm",
            "label": "lastRewardBlock",
            "offset": 0,
            "slot": "2",
            "type": "t_uint256"
          }
        ],
        "numberOfBytes": "96"
      },
      "t_uint256": {
        "encoding": "inplace",
        "label": "uint256",
        "numberOfBytes": "32"
      }
    }
  }
}