{
  "address": "0xeDb1C9bA41826f6F750d299d3eB20F0d41fD39eC",
  "abi": [
    {
      "inputs": [
        {
          "internalType": "uint256",
          "name": "launchTime_",
          "type": "uint256"
        },
        {
          "internalType": "uint256",
          "name": "deadline_",
          "type": "uint256"
        },
        {
          "internalType": "uint256",
          "name": "timeToRelease_",
          "type": "uint256"
        }
      ],
      "stateMutability": "nonpayable",
      "type": "constructor"
    },
    {
      "anonymous": false,
      "inputs": [
        {
          "indexed": true,
          "internalType": "address",
          "name": "owner",
          "type": "address"
        },
        {
          "indexed": true,
          "internalType": "address",
          "name": "spender",
          "type": "address"
        },
        {
          "indexed": false,
          "internalType": "uint256",
          "name": "value",
          "type": "uint256"
        }
      ],
      "name": "Approval",
      "type": "event"
    },
    {
      "anonymous": false,
      "inputs": [
        {
          "indexed": true,
          "internalType": "address",
          "name": "previousOwner",
          "type": "address"
        },
        {
          "indexed": true,
          "internalType": "address",
          "name": "newOwner",
          "type": "address"
        }
      ],
      "name": "OwnershipTransferred",
      "type": "event"
    },
    {
      "anonymous": false,
      "inputs": [
        {
          "indexed": false,
          "internalType": "address",
          "name": "token",
          "type": "address"
        },
        {
          "indexed": false,
          "internalType": "uint256",
          "name": "shareAPR",
          "type": "uint256"
        },
        {
          "indexed": false,
          "internalType": "uint256",
          "name": "shareAPRBase",
          "type": "uint256"
        },
        {
          "indexed": false,
          "internalType": "uint256",
          "name": "minimumStake",
          "type": "uint256"
        },
        {
          "indexed": false,
          "internalType": "uint256",
          "name": "cap",
          "type": "uint256"
        },
        {
          "indexed": false,
          "internalType": "uint256",
          "name": "totalShare",
          "type": "uint256"
        },
        {
          "indexed": false,
          "internalType": "uint256",
          "name": "totalShareBase",
          "type": "uint256"
        }
      ],
      "name": "PoolAdded",
      "type": "event"
    },
    {
      "anonymous": false,
      "inputs": [
        {
          "indexed": true,
          "internalType": "address",
          "name": "redeemer",
          "type": "address"
        },
        {
          "indexed": true,
          "internalType": "address",
          "name": "pool",
          "type": "address"
        },
        {
          "indexed": false,
          "internalType": "uint256",
          "name": "amount",
          "type": "uint256"
        },
        {
          "indexed": false,
          "internalType": "uint256",
          "name": "timestamp",
          "type": "uint256"
        }
      ],
      "name": "Redeem",
      "type": "event"
    },
    {
      "anonymous": false,
      "inputs": [
        {
          "indexed": true,
          "internalType": "address",
          "name": "owner",
          "type": "address"
        },
        {
          "indexed": true,
          "internalType": "address",
          "name": "nftAddress",
          "type": "address"
        },
        {
          "indexed": false,
          "internalType": "address",
          "name": "tokenLinked",
          "type": "address"
        },
        {
          "indexed": false,
          "internalType": "uint256",
          "name": "tokenId",
          "type": "uint256"
        },
        {
          "indexed": false,
          "internalType": "uint256",
          "name": "priceInPoint",
          "type": "uint256"
        },
        {
          "indexed": false,
          "internalType": "uint256",
          "name": "minimumStakeRequired",
          "type": "uint256"
        },
        {
          "indexed": false,
          "internalType": "uint256",
          "name": "timestamp",
          "type": "uint256"
        }
      ],
      "name": "RewardAdded",
      "type": "event"
    },
    {
      "anonymous": false,
      "inputs": [
        {
          "indexed": true,
          "internalType": "address",
          "name": "claimer",
          "type": "address"
        },
        {
          "indexed": true,
          "internalType": "address",
          "name": "token",
          "type": "address"
        },
        {
          "indexed": false,
          "internalType": "uint256",
          "name": "key",
          "type": "uint256"
        },
        {
          "indexed": false,
          "internalType": "uint256",
          "name": "tokenId",
          "type": "uint256"
        },
        {
          "indexed": false,
          "internalType": "uint256",
          "name": "timestamp",
          "type": "uint256"
        }
      ],
      "name": "RewardClaimed",
      "type": "event"
    },
    {
      "anonymous": false,
      "inputs": [
        {
          "indexed": true,
          "internalType": "address",
          "name": "owner",
          "type": "address"
        },
        {
          "indexed": true,
          "internalType": "address",
          "name": "token",
          "type": "address"
        },
        {
          "indexed": false,
          "internalType": "uint256",
          "name": "key",
          "type": "uint256"
        },
        {
          "indexed": false,
          "internalType": "uint256",
          "name": "tokenId",
          "type": "uint256"
        },
        {
          "indexed": false,
          "internalType": "uint256",
          "name": "timestamp",
          "type": "uint256"
        }
      ],
      "name": "RewardReleased",
      "type": "event"
    },
    {
      "anonymous": false,
      "inputs": [
        {
          "indexed": true,
          "internalType": "address",
          "name": "staker",
          "type": "address"
        },
        {
          "indexed": true,
          "internalType": "address",
          "name": "pool",
          "type": "address"
        },
        {
          "indexed": false,
          "internalType": "uint256",
          "name": "amount",
          "type": "uint256"
        },
        {
          "indexed": false,
          "internalType": "uint256",
          "name": "timestamp",
          "type": "uint256"
        }
      ],
      "name": "Stake",
      "type": "event"
    },
    {
      "anonymous": false,
      "inputs": [
        {
          "indexed": true,
          "internalType": "address",
          "name": "from",
          "type": "address"
        },
        {
          "indexed": true,
          "internalType": "address",
          "name": "to",
          "type": "address"
        },
        {
          "indexed": false,
          "internalType": "uint256",
          "name": "value",
          "type": "uint256"
        }
      ],
      "name": "Transfer",
      "type": "event"
    },
    {
      "anonymous": false,
      "inputs": [
        {
          "indexed": true,
          "internalType": "address",
          "name": "staker",
          "type": "address"
        },
        {
          "indexed": true,
          "internalType": "address",
          "name": "pool",
          "type": "address"
        },
        {
          "indexed": false,
          "internalType": "uint256",
          "name": "amount",
          "type": "uint256"
        },
        {
          "indexed": false,
          "internalType": "uint256",
          "name": "timestamp",
          "type": "uint256"
        }
      ],
      "name": "Unstake",
      "type": "event"
    },
    {
      "inputs": [
        {
          "internalType": "uint256",
          "name": "amount",
          "type": "uint256"
        },
        {
          "internalType": "uint256",
          "name": "shareAPR",
          "type": "uint256"
        },
        {
          "internalType": "uint256",
          "name": "baseAPR",
          "type": "uint256"
        },
        {
          "internalType": "uint256",
          "name": "rewardBlocks",
          "type": "uint256"
        }
      ],
      "name": "_calcReward",
      "outputs": [
        {
          "internalType": "uint256",
          "name": "",
          "type": "uint256"
        }
      ],
      "stateMutability": "pure",
      "type": "function"
    },
    {
      "inputs": [
        {
          "internalType": "address",
          "name": "_token",
          "type": "address"
        },
        {
          "internalType": "uint256",
          "name": "_shareAPR",
          "type": "uint256"
        },
        {
          "internalType": "uint256",
          "name": "_shareAPRBase",
          "type": "uint256"
        },
        {
          "internalType": "uint256",
          "name": "_minimumStake",
          "type": "uint256"
        },
        {
          "internalType": "uint256",
          "name": "cap_",
          "type": "uint256"
        },
        {
          "internalType": "uint256",
          "name": "_totalShare",
          "type": "uint256"
        },
        {
          "internalType": "uint256",
          "name": "_totalShareBase",
          "type": "uint256"
        }
      ],
      "name": "addPool",
      "outputs": [],
      "stateMutability": "nonpayable",
      "type": "function"
    },
    {
      "inputs": [
        {
          "internalType": "uint256",
          "name": "_tokenId",
          "type": "uint256"
        },
        {
          "internalType": "uint256",
          "name": "_priceInPoint",
          "type": "uint256"
        },
        {
          "internalType": "uint256",
          "name": "_minimumStakeRequired",
          "type": "uint256"
        },
        {
          "internalType": "address",
          "name": "_nftAddress",
          "type": "address"
        },
        {
          "internalType": "address",
          "name": "owner_",
          "type": "address"
        },
        {
          "internalType": "address",
          "name": "_tokenLinked",
          "type": "address"
        }
      ],
      "name": "addTokenReward",
      "outputs": [],
      "stateMutability": "nonpayable",
      "type": "function"
    },
    {
      "inputs": [
        {
          "internalType": "address",
          "name": "owner",
          "type": "address"
        },
        {
          "internalType": "address",
          "name": "spender",
          "type": "address"
        }
      ],
      "name": "allowance",
      "outputs": [
        {
          "internalType": "uint256",
          "name": "",
          "type": "uint256"
        }
      ],
      "stateMutability": "view",
      "type": "function"
    },
    {
      "inputs": [
        {
          "internalType": "address",
          "name": "spender",
          "type": "address"
        },
        {
          "internalType": "uint256",
          "name": "amount",
          "type": "uint256"
        }
      ],
      "name": "approve",
      "outputs": [
        {
          "internalType": "bool",
          "name": "",
          "type": "bool"
        }
      ],
      "stateMutability": "nonpayable",
      "type": "function"
    },
    {
      "inputs": [
        {
          "internalType": "address",
          "name": "account",
          "type": "address"
        }
      ],
      "name": "balanceOf",
      "outputs": [
        {
          "internalType": "uint256",
          "name": "",
          "type": "uint256"
        }
      ],
      "stateMutability": "view",
      "type": "function"
    },
    {
      "inputs": [],
      "name": "cap",
      "outputs": [
        {
          "internalType": "uint256",
          "name": "",
          "type": "uint256"
        }
      ],
      "stateMutability": "view",
      "type": "function"
    },
    {
      "inputs": [
        {
          "internalType": "uint256",
          "name": "key",
          "type": "uint256"
        }
      ],
      "name": "claim",
      "outputs": [],
      "stateMutability": "nonpayable",
      "type": "function"
    },
    {
      "inputs": [],
      "name": "decimals",
      "outputs": [
        {
          "internalType": "uint8",
          "name": "",
          "type": "uint8"
        }
      ],
      "stateMutability": "view",
      "type": "function"
    },
    {
      "inputs": [
        {
          "internalType": "address",
          "name": "spender",
          "type": "address"
        },
        {
          "internalType": "uint256",
          "name": "subtractedValue",
          "type": "uint256"
        }
      ],
      "name": "decreaseAllowance",
      "outputs": [
        {
          "internalType": "bool",
          "name": "",
          "type": "bool"
        }
      ],
      "stateMutability": "nonpayable",
      "type": "function"
    },
    {
      "inputs": [],
      "name": "farmDeadline",
      "outputs": [
        {
          "internalType": "uint256",
          "name": "",
          "type": "uint256"
        }
      ],
      "stateMutability": "view",
      "type": "function"
    },
    {
      "inputs": [
        {
          "internalType": "uint256",
          "name": "index",
          "type": "uint256"
        }
      ],
      "name": "getPoolByIndex",
      "outputs": [
        {
          "internalType": "address",
          "name": "poolAddress",
          "type": "address"
        }
      ],
      "stateMutability": "view",
      "type": "function"
    },
    {
      "inputs": [
        {
          "internalType": "address",
          "name": "_token",
          "type": "address"
        }
      ],
      "name": "getPoolDetails",
      "outputs": [
        {
          "internalType": "uint256",
          "name": "_shareAPR",
          "type": "uint256"
        },
        {
          "internalType": "uint256",
          "name": "_shareAPRBase",
          "type": "uint256"
        },
        {
          "internalType": "uint256",
          "name": "_minimumStake",
          "type": "uint256"
        },
        {
          "internalType": "uint256",
          "name": "cap_",
          "type": "uint256"
        },
        {
          "internalType": "uint256",
          "name": "totalSupply_",
          "type": "uint256"
        },
        {
          "internalType": "uint256",
          "name": "_totalShare",
          "type": "uint256"
        },
        {
          "internalType": "uint256",
          "name": "_totalShareBase",
          "type": "uint256"
        }
      ],
      "stateMutability": "view",
      "type": "function"
    },
    {
      "inputs": [],
      "name": "getPools",
      "outputs": [
        {
          "internalType": "address[]",
          "name": "poolAddreses",
          "type": "address[]"
        }
      ],
      "stateMutability": "view",
      "type": "function"
    },
    {
      "inputs": [
        {
          "internalType": "address",
          "name": "user",
          "type": "address"
        }
      ],
      "name": "getUserPools",
      "outputs": [
        {
          "internalType": "address[]",
          "name": "currentUserPools",
          "type": "address[]"
        }
      ],
      "stateMutability": "view",
      "type": "function"
    },
    {
      "inputs": [
        {
          "internalType": "address",
          "name": "spender",
          "type": "address"
        },
        {
          "internalType": "uint256",
          "name": "addedValue",
          "type": "uint256"
        }
      ],
      "name": "increaseAllowance",
      "outputs": [
        {
          "internalType": "bool",
          "name": "",
          "type": "bool"
        }
      ],
      "stateMutability": "nonpayable",
      "type": "function"
    },
    {
      "inputs": [],
      "name": "launchTime",
      "outputs": [
        {
          "internalType": "uint256",
          "name": "",
          "type": "uint256"
        }
      ],
      "stateMutability": "view",
      "type": "function"
    },
    {
      "inputs": [],
      "name": "mintedPoints",
      "outputs": [
        {
          "internalType": "uint256",
          "name": "",
          "type": "uint256"
        }
      ],
      "stateMutability": "view",
      "type": "function"
    },
    {
      "inputs": [],
      "name": "name",
      "outputs": [
        {
          "internalType": "string",
          "name": "",
          "type": "string"
        }
      ],
      "stateMutability": "view",
      "type": "function"
    },
    {
      "inputs": [
        {
          "internalType": "address",
          "name": "",
          "type": "address"
        },
        {
          "internalType": "address",
          "name": "",
          "type": "address"
        },
        {
          "internalType": "uint256",
          "name": "",
          "type": "uint256"
        },
        {
          "internalType": "bytes",
          "name": "",
          "type": "bytes"
        }
      ],
      "name": "onERC721Received",
      "outputs": [
        {
          "internalType": "bytes4",
          "name": "",
          "type": "bytes4"
        }
      ],
      "stateMutability": "nonpayable",
      "type": "function"
    },
    {
      "inputs": [],
      "name": "owner",
      "outputs": [
        {
          "internalType": "address",
          "name": "",
          "type": "address"
        }
      ],
      "stateMutability": "view",
      "type": "function"
    },
    {
      "inputs": [
        {
          "internalType": "address",
          "name": "_token",
          "type": "address"
        }
      ],
      "name": "redeem",
      "outputs": [],
      "stateMutability": "nonpayable",
      "type": "function"
    },
    {
      "inputs": [
        {
          "internalType": "address[]",
          "name": "_tokens",
          "type": "address[]"
        },
        {
          "internalType": "uint256",
          "name": "key",
          "type": "uint256"
        }
      ],
      "name": "redeemAndClaim",
      "outputs": [],
      "stateMutability": "nonpayable",
      "type": "function"
    },
    {
      "inputs": [
        {
          "internalType": "address[]",
          "name": "_tokens",
          "type": "address[]"
        }
      ],
      "name": "redeemBatch",
      "outputs": [],
      "stateMutability": "nonpayable",
      "type": "function"
    },
    {
      "inputs": [
        {
          "internalType": "uint256",
          "name": "key",
          "type": "uint256"
        }
      ],
      "name": "releaseNFT",
      "outputs": [],
      "stateMutability": "nonpayable",
      "type": "function"
    },
    {
      "inputs": [],
      "name": "renounceOwnership",
      "outputs": [],
      "stateMutability": "nonpayable",
      "type": "function"
    },
    {
      "inputs": [],
      "name": "rewardCount",
      "outputs": [
        {
          "internalType": "uint256",
          "name": "",
          "type": "uint256"
        }
      ],
      "stateMutability": "view",
      "type": "function"
    },
    {
      "inputs": [
        {
          "internalType": "uint256",
          "name": "_id",
          "type": "uint256"
        }
      ],
      "name": "rewardTokenDetails",
      "outputs": [
        {
          "internalType": "address",
          "name": "_nftAddress",
          "type": "address"
        },
        {
          "internalType": "address",
          "name": "_owner",
          "type": "address"
        },
        {
          "internalType": "uint256",
          "name": "_tokenId",
          "type": "uint256"
        },
        {
          "internalType": "uint256",
          "name": "_priceInPoint",
          "type": "uint256"
        },
        {
          "internalType": "uint256",
          "name": "_minimumStakeRequired",
          "type": "uint256"
        },
        {
          "internalType": "address",
          "name": "_tokenLinked",
          "type": "address"
        }
      ],
      "stateMutability": "view",
      "type": "function"
    },
    {
      "inputs": [
        {
          "internalType": "address",
          "name": "_token",
          "type": "address"
        },
        {
          "internalType": "uint256",
          "name": "_amount",
          "type": "uint256"
        }
      ],
      "name": "stake",
      "outputs": [],
      "stateMutability": "nonpayable",
      "type": "function"
    },
    {
      "inputs": [
        {
          "internalType": "address[]",
          "name": "_tokens",
          "type": "address[]"
        },
        {
          "internalType": "uint256[]",
          "name": "_amounts",
          "type": "uint256[]"
        }
      ],
      "name": "stakeBatch",
      "outputs": [],
      "stateMutability": "nonpayable",
      "type": "function"
    },
    {
      "inputs": [],
      "name": "symbol",
      "outputs": [
        {
          "internalType": "string",
          "name": "",
          "type": "string"
        }
      ],
      "stateMutability": "view",
      "type": "function"
    },
    {
      "inputs": [],
      "name": "totalSupply",
      "outputs": [
        {
          "internalType": "uint256",
          "name": "",
          "type": "uint256"
        }
      ],
      "stateMutability": "view",
      "type": "function"
    },
    {
      "inputs": [
        {
          "internalType": "address",
          "name": "recipient",
          "type": "address"
        },
        {
          "internalType": "uint256",
          "name": "amount",
          "type": "uint256"
        }
      ],
      "name": "transfer",
      "outputs": [
        {
          "internalType": "bool",
          "name": "",
          "type": "bool"
        }
      ],
      "stateMutability": "nonpayable",
      "type": "function"
    },
    {
      "inputs": [
        {
          "internalType": "address",
          "name": "sender",
          "type": "address"
        },
        {
          "internalType": "address",
          "name": "recipient",
          "type": "address"
        },
        {
          "internalType": "uint256",
          "name": "amount",
          "type": "uint256"
        }
      ],
      "name": "transferFrom",
      "outputs": [
        {
          "internalType": "bool",
          "name": "",
          "type": "bool"
        }
      ],
      "stateMutability": "nonpayable",
      "type": "function"
    },
    {
      "inputs": [
        {
          "internalType": "address",
          "name": "newOwner",
          "type": "address"
        }
      ],
      "name": "transferOwnership",
      "outputs": [],
      "stateMutability": "nonpayable",
      "type": "function"
    },
    {
      "inputs": [
        {
          "internalType": "address",
          "name": "_token",
          "type": "address"
        }
      ],
      "name": "unStakeEarly",
      "outputs": [],
      "stateMutability": "nonpayable",
      "type": "function"
    },
    {
      "inputs": [
        {
          "internalType": "address[]",
          "name": "_tokens",
          "type": "address[]"
        }
      ],
      "name": "unStakeEarlyBatch",
      "outputs": [],
      "stateMutability": "nonpayable",
      "type": "function"
    },
    {
      "inputs": [
        {
          "internalType": "address",
          "name": "_token",
          "type": "address"
        }
      ],
      "name": "unstake",
      "outputs": [],
      "stateMutability": "nonpayable",
      "type": "function"
    },
    {
      "inputs": [
        {
          "internalType": "address[]",
          "name": "_tokens",
          "type": "address[]"
        }
      ],
      "name": "unstakeBatch",
      "outputs": [],
      "stateMutability": "nonpayable",
      "type": "function"
    },
    {
      "inputs": [
        {
          "internalType": "address",
          "name": "user",
          "type": "address"
        },
        {
          "internalType": "address",
          "name": "token",
          "type": "address"
        }
      ],
      "name": "userPoolDetails",
      "outputs": [
        {
          "internalType": "uint256",
          "name": "amount",
          "type": "uint256"
        },
        {
          "internalType": "uint256",
          "name": "lastRewardBlock",
          "type": "uint256"
        },
        {
          "internalType": "uint256",
          "name": "stakeTime",
          "type": "uint256"
        }
      ],
      "stateMutability": "view",
      "type": "function"
    },
    {
      "inputs": [
        {
          "internalType": "address",
          "name": "_user",
          "type": "address"
        },
        {
          "internalType": "address",
          "name": "_token",
          "type": "address"
        }
      ],
      "name": "userPoolReward",
      "outputs": [
        {
          "internalType": "uint256",
          "name": "_totalRewards",
          "type": "uint256"
        }
      ],
      "stateMutability": "view",
      "type": "function"
    },
    {
      "inputs": [
        {
          "internalType": "address",
          "name": "user",
          "type": "address"
        }
      ],
      "name": "userRewards",
      "outputs": [
        {
          "internalType": "uint256",
          "name": "_totalRewards",
          "type": "uint256"
        }
      ],
      "stateMutability": "view",
      "type": "function"
    }
  ],
  "transactionHash": "0x1cd6ba8c5b3a685ca8e9c9b4ac6d54e447eb73ec8b97b990d34157c4d6527c15",
  "args": [
    1639841512,
    1642433512,
    1646753512
  ],
  "solcInputHash": "80967d8eef9d98d7f7d253c24f00a32d",
  "bytecode": "0x60e06040523480156200001157600080fd5b5060405162004915380380620049158339810160408190526200003491620002b4565b8282826040518060400160405280601481526020017f537461727466692052657761726420546f6b656e00000000000000000000000081525060405180604001604052806005815260200164525354464960d81b815250620000a56200009f620001ba60201b60201c565b620001be565b8151620000ba9060049060208501906200020e565b508051620000d09060059060208401906200020e565b50506001600655508282116200013e5760405162461bcd60e51b815260206004820152602860248201527f4c61756e63682074696d652073686f756c64206265206c657373207468656e20604482015267646561646c696e6560c01b60648201526084015b60405180910390fd5b818111620001a15760405162461bcd60e51b815260206004820152602960248201527f646561646c696e652073686f756c64206265206c657373207468656e2072656c604482015268656173652074696d6560b81b606482015260840162000135565b60a09190915260c091909152608052506200031f915050565b3390565b600080546001600160a01b038381166001600160a01b0319831681178455604051919092169283917f8be0079c531659141344cd1fd0a4f28419497f9722a3daafe3b4186f6b6457e09190a35050565b8280546200021c90620002e2565b90600052602060002090601f0160209004810192826200024057600085556200028b565b82601f106200025b57805160ff19168380011785556200028b565b828001600101855582156200028b579182015b828111156200028b5782518255916020019190600101906200026e565b50620002999291506200029d565b5090565b5b808211156200029957600081556001016200029e565b600080600060608486031215620002c9578283fd5b8351925060208401519150604084015190509250925092565b600181811c90821680620002f757607f821691505b602082108114156200031957634e487b7160e01b600052602260045260246000fd5b50919050565b60805160a05160c0516145796200039c6000396000818161052501528181611dd2015281816123f6015261286501526000818161043e0152818161088e015281816108b401528181610a2901528181610a4f0152818161219b015281816121c6015281816121ec01526122ea01526000611d3101526145796000f3fe608060405234801561001057600080fd5b50600436106102de5760003560e01c80637908542511610186578063a9059cbb116100e3578063ce47e73e11610097578063dd62ed3e11610071578063dd62ed3e146107eb578063f2888dbb14610831578063f2fde38b1461084457600080fd5b8063ce47e73e1461072f578063d3e90fa014610742578063d8143860146107d857600080fd5b8063bc0e610a116100c8578063bc0e610a146106f6578063bf60269214610709578063cc73c66f1461071c57600080fd5b8063a9059cbb146106d0578063adc9772e146106e357600080fd5b806395a2251f1161013a5780639816af581161011f5780639816af5814610697578063a0378aec146106aa578063a457c2d7146106bd57600080fd5b806395a2251f1461067c57806395d89b411461068f57600080fd5b80637d447b221161016b5780637d447b22146105495780637dede9c1146105b75780638da5cb5b1461065e57600080fd5b8063790854251461051b578063790ca4131461052357600080fd5b806335630a3e1161023f5780635e5ba8d7116101f35780636ced6d36116101cd5780636ced6d36146104ca57806370a08231146104dd578063715018a61461051357600080fd5b80635e5ba8d71461046a578063673a2a1f1461047d5780636ce0c4b51461049257600080fd5b8063395093511161022457806339509351146104295780634acaeea61461043c578063568148781461046257600080fd5b806335630a3e14610401578063379607f51461041657600080fd5b8063150b7a021161029657806323b872dd1161027b57806323b872dd146103d7578063313ce567146103ea578063355274ea146103f957600080fd5b8063150b7a021461036757806318160ddd146103cf57600080fd5b806306fdde03116102c757806306fdde031461031c57806308206a7714610331578063095ea7b31461034457600080fd5b80630660f1e8146102e357806306af075014610309575b600080fd5b6102f66102f1366004613d9f565b610857565b6040519081526020015b60405180910390f35b6102f661031736600461416e565b610959565b610324610991565b60405161030091906141f9565b6102f661033f366004613dd7565b610a23565b610357610352366004613f46565b610a8a565b6040519015158152602001610300565b61039e610375366004613e4f565b7f150b7a0200000000000000000000000000000000000000000000000000000000949350505050565b6040517fffffffff000000000000000000000000000000000000000000000000000000009091168152602001610300565b6003546102f6565b6103576103e5366004613e0f565b610aa1565b60405160128152602001610300565b6007546102f6565b61041461040f366004614108565b610b8c565b005b6104146104243660046140d8565b610ba2565b610357610437366004613f46565b610c15565b7f00000000000000000000000000000000000000000000000000000000000000006102f6565b6008546102f6565b6104146104783660046140d8565b610c5e565b610485610c6b565b604051610300919061419f565b6104a56104a03660046140d8565b610c7c565b60405173ffffffffffffffffffffffffffffffffffffffff9091168152602001610300565b6104146104d8366004613d9f565b610c89565b6102f66104eb366004613d9f565b73ffffffffffffffffffffffffffffffffffffffff1660009081526001602052604090205490565b610414610cf9565b6009546102f6565b7f00000000000000000000000000000000000000000000000000000000000000006102f6565b61059c610557366004613dd7565b73ffffffffffffffffffffffffffffffffffffffff91821660009081526010602090815260408083209390941682529190915220805460028201546001909201549092565b60408051938452602084019290925290820152606001610300565b6106156105c53660046140d8565b6000908152600a602052604090208054600182015460028301546003840154600485015460059095015473ffffffffffffffffffffffffffffffffffffffff948516969385169592949193911690565b6040805173ffffffffffffffffffffffffffffffffffffffff978816815295871660208701528501939093526060840191909152608083015290911660a082015260c001610300565b60005473ffffffffffffffffffffffffffffffffffffffff166104a5565b61041461068a366004613d9f565b610d86565b610324610df6565b6104856106a5366004613d9f565b610e05565b6104146106b8366004613fc5565b610e10565b6103576106cb366004613f46565b610eef565b6103576106de366004613f46565b610fc7565b6104146106f1366004613f46565b610fd4565b610414610704366004613fc5565b611045565b61041461071736600461406e565b61111f565b61041461072a366004613f71565b611250565b61041461073d366004613fc5565b611268565b6107a3610750366004613d9f565b73ffffffffffffffffffffffffffffffffffffffff166000908152600f60205260409020805460018201546002830154600384015460048501546005860154600690960154949693959294919390929190565b604080519788526020880196909652948601939093526060850191909152608084015260a083015260c082015260e001610300565b6104146107e6366004614005565b611342565b6102f66107f9366004613dd7565b73ffffffffffffffffffffffffffffffffffffffff918216600090815260026020908152604080832093909416825291909152205490565b61041461083f366004613d9f565b6114cc565b610414610852366004613d9f565b61153c565b73ffffffffffffffffffffffffffffffffffffffff81166000908152601160205260408120819061088790611669565b90506000427f0000000000000000000000000000000000000000000000000000000000000000116108d8577f00000000000000000000000000000000000000000000000000000000000000006108da565b425b905060005b82518110156109515761093385848381518110610925577f4e487b7100000000000000000000000000000000000000000000000000000000600052603260045260246000fd5b60200260200101518461167d565b61093d908561426a565b9350806109498161448a565b9150506108df565b505050919050565b60008061097161096a8560646143e2565b8690611716565b61097b90876143e2565b90506109878184611739565b9695505050505050565b6060600480546109a090614436565b80601f01602080910402602001604051908101604052809291908181526020018280546109cc90614436565b8015610a195780601f106109ee57610100808354040283529160200191610a19565b820191906000526020600020905b8154815290600101906020018083116109fc57829003601f168201915b5050505050905090565b600080427f000000000000000000000000000000000000000000000000000000000000000011610a73577f0000000000000000000000000000000000000000000000000000000000000000610a75565b425b9050610a8284848361167d565b949350505050565b6000610a97338484611751565b5060015b92915050565b6000610aae848484611904565b73ffffffffffffffffffffffffffffffffffffffff8416600090815260026020908152604080832033845290915290205482811015610b74576040517f08c379a000000000000000000000000000000000000000000000000000000000815260206004820152602860248201527f45524332303a207472616e7366657220616d6f756e742065786365656473206160448201527f6c6c6f77616e636500000000000000000000000000000000000000000000000060648201526084015b60405180910390fd5b610b818533858403611751565b506001949350505050565b610b9a868686868686611bb8565b505050505050565b610bac8133611c3d565b610c12576040517f08c379a000000000000000000000000000000000000000000000000000000000815260206004820152601760248201527f496e76616c696420636c61696d206f7065726174696f6e0000000000000000006044820152606401610b6b565b50565b33600081815260026020908152604080832073ffffffffffffffffffffffffffffffffffffffff871684529091528120549091610a97918590610c5990869061426a565b611751565b610c6781611cac565b5050565b6060610c77600d611669565b905090565b6000610a9b600d83611dc1565b610c933382611dcd565b610c12576040517f08c379a000000000000000000000000000000000000000000000000000000000815260206004820152601760248201527f496e76616c6964207374616b65206f7065726174696f6e0000000000000000006044820152606401610b6b565b60005473ffffffffffffffffffffffffffffffffffffffff163314610d7a576040517f08c379a000000000000000000000000000000000000000000000000000000000815260206004820181905260248201527f4f776e61626c653a2063616c6c6572206973206e6f7420746865206f776e65726044820152606401610b6b565b610d846000612059565b565b610d9033826120ce565b610c12576040517f08c379a000000000000000000000000000000000000000000000000000000000815260206004820152601860248201527f496e76616c69642072656465656d206f7065726174696f6e00000000000000006044820152606401610b6b565b6060600580546109a090614436565b6060610a9b826122b5565b60005b81811015610eea57610e7233848484818110610e58577f4e487b7100000000000000000000000000000000000000000000000000000000600052603260045260246000fd5b9050602002016020810190610e6d9190613d9f565b6122e6565b610ed8576040517f08c379a000000000000000000000000000000000000000000000000000000000815260206004820152601960248201527f496e76616c696420756e7374616b65206f7065726174696f6e000000000000006044820152606401610b6b565b80610ee28161448a565b915050610e13565b505050565b33600090815260026020908152604080832073ffffffffffffffffffffffffffffffffffffffff8616845290915281205482811015610fb0576040517f08c379a000000000000000000000000000000000000000000000000000000000815260206004820152602560248201527f45524332303a2064656372656173656420616c6c6f77616e63652062656c6f7760448201527f207a65726f0000000000000000000000000000000000000000000000000000006064820152608401610b6b565b610fbd3385858403611751565b5060019392505050565b6000610a97338484611904565b610fdf3383836123ef565b610c67576040517f08c379a000000000000000000000000000000000000000000000000000000000815260206004820152601760248201527f496e76616c6964207374616b65206f7065726174696f6e0000000000000000006044820152606401610b6b565b60005b81811015610eea576110a73384848481811061108d577f4e487b7100000000000000000000000000000000000000000000000000000000600052603260045260246000fd5b90506020020160208101906110a29190613d9f565b6120ce565b61110d576040517f08c379a000000000000000000000000000000000000000000000000000000000815260206004820152601860248201527f496e76616c69642072656465656d206f7065726174696f6e00000000000000006044820152606401610b6b565b806111178161448a565b915050611048565b60005b828110156111df576111673385858481811061108d577f4e487b7100000000000000000000000000000000000000000000000000000000600052603260045260246000fd5b6111cd576040517f08c379a000000000000000000000000000000000000000000000000000000000815260206004820152601860248201527f496e76616c69642072656465656d206f7065726174696f6e00000000000000006044820152606401610b6b565b806111d78161448a565b915050611122565b506111ea8133611c3d565b610eea576040517f08c379a000000000000000000000000000000000000000000000000000000000815260206004820152601760248201527f496e76616c696420636c61696d206f7065726174696f6e0000000000000000006044820152606401610b6b565b61125f87878787878787612a4f565b50505050505050565b60005b81811015610eea576112ca338484848181106112b0577f4e487b7100000000000000000000000000000000000000000000000000000000600052603260045260246000fd5b90506020020160208101906112c59190613d9f565b611dcd565b611330576040517f08c379a000000000000000000000000000000000000000000000000000000000815260206004820152601760248201527f496e76616c6964207374616b65206f7065726174696f6e0000000000000000006044820152606401610b6b565b8061133a8161448a565b91505061126b565b8281146113ab576040517f08c379a000000000000000000000000000000000000000000000000000000000815260206004820152601560248201527f4d69736d61746368206172726179206c656e67746800000000000000000000006044820152606401610b6b565b60005b838110156114c55761144d338686848181106113f3577f4e487b7100000000000000000000000000000000000000000000000000000000600052603260045260246000fd5b90506020020160208101906114089190613d9f565b858585818110611441577f4e487b7100000000000000000000000000000000000000000000000000000000600052603260045260246000fd5b905060200201356123ef565b6114b3576040517f08c379a000000000000000000000000000000000000000000000000000000000815260206004820152601760248201527f496e76616c6964207374616b65206f7065726174696f6e0000000000000000006044820152606401610b6b565b806114bd8161448a565b9150506113ae565b5050505050565b6114d633826122e6565b610c12576040517f08c379a000000000000000000000000000000000000000000000000000000000815260206004820152601960248201527f496e76616c696420756e7374616b65206f7065726174696f6e000000000000006044820152606401610b6b565b60005473ffffffffffffffffffffffffffffffffffffffff1633146115bd576040517f08c379a000000000000000000000000000000000000000000000000000000000815260206004820181905260248201527f4f776e61626c653a2063616c6c6572206973206e6f7420746865206f776e65726044820152606401610b6b565b73ffffffffffffffffffffffffffffffffffffffff8116611660576040517f08c379a000000000000000000000000000000000000000000000000000000000815260206004820152602660248201527f4f776e61626c653a206e6577206f776e657220697320746865207a65726f206160448201527f64647265737300000000000000000000000000000000000000000000000000006064820152608401610b6b565b610c1281612059565b6060600061167683612df4565b9392505050565b73ffffffffffffffffffffffffffffffffffffffff83811660009081526010602090815260408083209386168352929052908120600281015490548184111561170d5760006116cc838661441f565b73ffffffffffffffffffffffffffffffffffffffff87166000908152600f6020526040902080546001909101549192506117099184919084610959565b9350505b50509392505050565b6000816117256012600a61431c565b61172f90856143e2565b6116769190614282565b60006117476012600a61431c565b61172f83856143e2565b73ffffffffffffffffffffffffffffffffffffffff83166117f3576040517f08c379a0000000000000000000000000000000000000000000000000000000008152602060048201526024808201527f45524332303a20617070726f76652066726f6d20746865207a65726f2061646460448201527f72657373000000000000000000000000000000000000000000000000000000006064820152608401610b6b565b73ffffffffffffffffffffffffffffffffffffffff8216611896576040517f08c379a000000000000000000000000000000000000000000000000000000000815260206004820152602260248201527f45524332303a20617070726f766520746f20746865207a65726f20616464726560448201527f73730000000000000000000000000000000000000000000000000000000000006064820152608401610b6b565b73ffffffffffffffffffffffffffffffffffffffff83811660008181526002602090815260408083209487168084529482529182902085905590518481527f8c5be1e5ebec7d5bd14f71427d1e84f3dd0314c0f7b2291e5b200ac8c7c3b925910160405180910390a3505050565b73ffffffffffffffffffffffffffffffffffffffff83166119a7576040517f08c379a000000000000000000000000000000000000000000000000000000000815260206004820152602560248201527f45524332303a207472616e736665722066726f6d20746865207a65726f20616460448201527f64726573730000000000000000000000000000000000000000000000000000006064820152608401610b6b565b73ffffffffffffffffffffffffffffffffffffffff8216611a4a576040517f08c379a000000000000000000000000000000000000000000000000000000000815260206004820152602360248201527f45524332303a207472616e7366657220746f20746865207a65726f206164647260448201527f65737300000000000000000000000000000000000000000000000000000000006064820152608401610b6b565b73ffffffffffffffffffffffffffffffffffffffff831660009081526001602052604090205481811015611b00576040517f08c379a000000000000000000000000000000000000000000000000000000000815260206004820152602660248201527f45524332303a207472616e7366657220616d6f756e742065786365656473206260448201527f616c616e636500000000000000000000000000000000000000000000000000006064820152608401610b6b565b73ffffffffffffffffffffffffffffffffffffffff808516600090815260016020526040808220858503905591851681529081208054849290611b4490849061426a565b925050819055508273ffffffffffffffffffffffffffffffffffffffff168473ffffffffffffffffffffffffffffffffffffffff167fddf252ad1be2c89b69c2b068fc378daa952ba7f163c4a11628f55a4df523b3ef84604051611baa91815260200190565b60405180910390a350505050565b8315611c2f57611bc9600d82612e50565b611c2f576040517f08c379a000000000000000000000000000000000000000000000000000000000815260206004820152600e60248201527f6e6f6e20657869737420706f6f6c0000000000000000000000000000000000006044820152606401610b6b565b610b9a868686868686612e7f565b6000828152600a60205260408120600401548015611ca25773ffffffffffffffffffffffffffffffffffffffff8084166000908152601060209081526040808320888452600a83528184206005015490941683529290522054811015611ca257600080fd5b610a8284846132de565b6000805473ffffffffffffffffffffffffffffffffffffffff163314611d2e576040517f08c379a000000000000000000000000000000000000000000000000000000000815260206004820181905260248201527f4f776e61626c653a2063616c6c6572206973206e6f7420746865206f776e65726044820152606401610b6b565b427f00000000000000000000000000000000000000000000000000000000000000001115611db8576040517f08c379a000000000000000000000000000000000000000000000000000000000815260206004820152600f60248201527f4661726d2069732072756e6e696e6700000000000000000000000000000000006044820152606401610b6b565b610a9b8261355a565b600061167683836137d6565b6000427f000000000000000000000000000000000000000000000000000000000000000011611e58576040517f08c379a000000000000000000000000000000000000000000000000000000000815260206004820152601160248201527f5374616b696e67206973206c6f636b65640000000000000000000000000000006044820152606401610b6b565b73ffffffffffffffffffffffffffffffffffffffff8084166000908152601060209081526040808320938616835292815282822054600f90915291902060040154811115611f02576040517f08c379a000000000000000000000000000000000000000000000000000000000815260206004820152601960248201527f496e76616c696420756e7374616b65206f7065726174696f6e000000000000006044820152606401610b6b565b73ffffffffffffffffffffffffffffffffffffffff83166000908152600f602052604081206004018054839290611f3a90849061441f565b909155505073ffffffffffffffffffffffffffffffffffffffff848116600081815260106020908152604080832094881680845294825280832092909255815185815242918101919091527f18edd09e80386cd99df397e2e0d87d2bb259423eae08645e776321a36fe680ef91015b60405180910390a36040517fa9059cbb00000000000000000000000000000000000000000000000000000000815273ffffffffffffffffffffffffffffffffffffffff85811660048301526024820183905284169063a9059cbb90604401602060405180830381600087803b15801561202157600080fd5b505af1158015612035573d6000803e3d6000fd5b505050506040513d601f19601f82011682018060405250810190610a8291906140b8565b6000805473ffffffffffffffffffffffffffffffffffffffff8381167fffffffffffffffffffffffff0000000000000000000000000000000000000000831681178455604051919092169283917f8be0079c531659141344cd1fd0a4f28419497f9722a3daafe3b4186f6b6457e09190a35050565b73ffffffffffffffffffffffffffffffffffffffff821660009081526011602052604081206120fd9083612e50565b612163576040517f08c379a000000000000000000000000000000000000000000000000000000000815260206004820152600960248201527f4e6f6e20657869737400000000000000000000000000000000000000000000006044820152606401610b6b565b73ffffffffffffffffffffffffffffffffffffffff8084166000908152601060209081526040808320938616835292905220600201547f00000000000000000000000000000000000000000000000000000000000000008110156122ae576000427f000000000000000000000000000000000000000000000000000000000000000011612210577f0000000000000000000000000000000000000000000000000000000000000000612212565b425b9050600061222186868461167d565b905080156122ab5773ffffffffffffffffffffffffffffffffffffffff8681166000818152601060209081526040808320948a16808452948252918290204260029091018190558251868152918201527f3f693fff038bb8a046aa76d9516190ac7444f7d69cf952c4cbdc086fdef2d6fc910160405180910390a36122a68682613827565b600193505b50505b5092915050565b73ffffffffffffffffffffffffffffffffffffffff81166000908152601160205260409020606090610a9b90611669565b60007f00000000000000000000000000000000000000000000000000000000000000004211612371576040517f08c379a000000000000000000000000000000000000000000000000000000000815260206004820152601160248201527f5374616b696e67206973206c6f636b65640000000000000000000000000000006044820152606401610b6b565b61237b83836120ce565b5073ffffffffffffffffffffffffffffffffffffffff8381166000818152601060209081526040808320948716808452948252808320805493905580518381524292810192909252919392917f18edd09e80386cd99df397e2e0d87d2bb259423eae08645e776321a36fe680ef9101611fa9565b60008383837f0000000000000000000000000000000000000000000000000000000000000000421061247d576040517f08c379a000000000000000000000000000000000000000000000000000000000815260206004820152601160248201527f5374616b696e67206973206c6f636b65640000000000000000000000000000006044820152606401610b6b565b612488600d83612e50565b6124ee576040517f08c379a000000000000000000000000000000000000000000000000000000000815260206004820152600f60248201527f6e6f6e2065786973746520706f6f6c00000000000000000000000000000000006044820152606401610b6b565b73ffffffffffffffffffffffffffffffffffffffff82166000908152600f6020526040902060020154811015612580576040517f08c379a000000000000000000000000000000000000000000000000000000000815260206004820152601c60248201527f6c657373207468616e20746865206d696e696d756d20616d6f756e74000000006044820152606401610b6b565b6040517fdd62ed3e00000000000000000000000000000000000000000000000000000000815273ffffffffffffffffffffffffffffffffffffffff848116600483015230602483015282919084169063dd62ed3e9060440160206040518083038186803b1580156125f057600080fd5b505afa158015612604573d6000803e3d6000fd5b505050506040513d601f19601f8201168201806040525081019061262891906140f0565b1015612690576040517f08c379a000000000000000000000000000000000000000000000000000000000815260206004820152600b60248201527f6e6f7420616c6c6f7765640000000000000000000000000000000000000000006044820152606401610b6b565b73ffffffffffffffffffffffffffffffffffffffff86166000908152600f60205260408120600401546126c490879061426a565b73ffffffffffffffffffffffffffffffffffffffff88166000908152600f6020526040902060030154909150811115612759576040517f08c379a000000000000000000000000000000000000000000000000000000000815260206004820152601860248201527f5374616b653a20506f6f6c2043617020657863656564656400000000000000006044820152606401610b6b565b73ffffffffffffffffffffffffffffffffffffffff88166000908152601160205260409020869061278a9089612e50565b156127d45773ffffffffffffffffffffffffffffffffffffffff808a166000908152601060209081526040808320938c16835292905220546127cd90889061426a565b9050612805565b73ffffffffffffffffffffffffffffffffffffffff8916600090815260116020526040902061280390896138c2565b505b81600f60008a73ffffffffffffffffffffffffffffffffffffffff1673ffffffffffffffffffffffffffffffffffffffff1681526020019081526020016000206004018190555060405180606001604052808281526020014281526020017f0000000000000000000000000000000000000000000000000000000000000000815250601060008b73ffffffffffffffffffffffffffffffffffffffff1673ffffffffffffffffffffffffffffffffffffffff16815260200190815260200160002060008a73ffffffffffffffffffffffffffffffffffffffff1673ffffffffffffffffffffffffffffffffffffffff1681526020019081526020016000206000820151816000015560208201518160010155604082015181600201559050508773ffffffffffffffffffffffffffffffffffffffff168973ffffffffffffffffffffffffffffffffffffffff167f63602d0ecc7b3a0ef7ff1a116e23056662d64280355ba8031b6d0d767c4b4458894260405161298c929190918252602082015260400190565b60405180910390a36040517f23b872dd00000000000000000000000000000000000000000000000000000000815273ffffffffffffffffffffffffffffffffffffffff8a81166004830152306024830152604482018990528916906323b872dd90606401602060405180830381600087803b158015612a0a57600080fd5b505af1158015612a1e573d6000803e3d6000fd5b505050506040513d601f19601f82011682018060405250810190612a4291906140b8565b9998505050505050505050565b60005473ffffffffffffffffffffffffffffffffffffffff163314612ad0576040517f08c379a000000000000000000000000000000000000000000000000000000000815260206004820181905260248201527f4f776e61626c653a2063616c6c6572206973206e6f7420746865206f776e65726044820152606401610b6b565b612ada8282611716565b600c54612ae7919061426a565b600c819055606490612b0290670de0b6b3a764000090614282565b1115612b6a576040517f08c379a000000000000000000000000000000000000000000000000000000000815260206004820152600a60248201527f65786365656420636170000000000000000000000000000000000000000000006044820152606401610b6b565b8515801590612b7857508415155b8015612b8357508315155b8015612b8e57508215155b8015612b9957508115155b8015612ba457508015155b8015612bc5575073ffffffffffffffffffffffffffffffffffffffff871615155b612c2b576040517f08c379a000000000000000000000000000000000000000000000000000000000815260206004820152601760248201527f5a65726f2076616c756573206e6f7420616c6c6f7765640000000000000000006044820152606401610b6b565b612c36600d88612e50565b15612c9d576040517f08c379a000000000000000000000000000000000000000000000000000000000815260206004820152601f60248201527f4475706c6963617465642076616c7565206973206e6f7420616c6c6f776564006044820152606401610b6b565b612ca8600d886138c2565b506040518060e001604052808781526020018681526020018581526020018481526020016000815260200183815260200182815250600f60008973ffffffffffffffffffffffffffffffffffffffff1673ffffffffffffffffffffffffffffffffffffffff168152602001908152602001600020600082015181600001556020820151816001015560408201518160020155606082015181600301556080820151816004015560a0820151816005015560c082015181600601559050507f7f8e778ea5a2b6d01c30940e77a7bc8973710ae3df7a9621a0eb875dc0ea6a2d87878787878787604051612de3979695949392919073ffffffffffffffffffffffffffffffffffffffff979097168752602087019590955260408601939093526060850191909152608084015260a083015260c082015260e00190565b60405180910390a150505050505050565b606081600001805480602002602001604051908101604052809291908181526020018280548015612e4457602002820191906000526020600020905b815481526020019060010190808311612e30575b50505050509050919050565b73ffffffffffffffffffffffffffffffffffffffff811660009081526001830160205260408120541515611676565b60005473ffffffffffffffffffffffffffffffffffffffff163314612f00576040517f08c379a000000000000000000000000000000000000000000000000000000000815260206004820181905260248201527f4f776e61626c653a2063616c6c6572206973206e6f7420746865206f776e65726044820152606401610b6b565b8415801590612f24575073ffffffffffffffffffffffffffffffffffffffff831615155b8015612f45575073ffffffffffffffffffffffffffffffffffffffff821615155b612fab576040517f08c379a000000000000000000000000000000000000000000000000000000000815260206004820152601760248201527f5a65726f2076616c756573206e6f7420616c6c6f7765640000000000000000006044820152606401610b6b565b6040517f081812fc00000000000000000000000000000000000000000000000000000000815260048101879052309073ffffffffffffffffffffffffffffffffffffffff85169063081812fc9060240160206040518083038186803b15801561301357600080fd5b505afa158015613027573d6000803e3d6000fd5b505050506040513d601f19601f8201168201806040525081019061304b9190613dbb565b73ffffffffffffffffffffffffffffffffffffffff16148061310d57506040517fe985e9c500000000000000000000000000000000000000000000000000000000815273ffffffffffffffffffffffffffffffffffffffff838116600483015230602483015284169063e985e9c59060440160206040518083038186803b1580156130d557600080fd5b505afa1580156130e9573d6000803e3d6000fd5b505050506040513d601f19601f8201168201806040525081019061310d91906140b8565b613173576040517f08c379a000000000000000000000000000000000000000000000000000000000815260206004820152600c60248201527f4e6f7420617070726f76656400000000000000000000000000000000000000006044820152606401610b6b565b6040805160c08101825273ffffffffffffffffffffffffffffffffffffffff808616825284811660208084019182528385018b8152606085018b8152608086018b815288861660a088019081526009546000908152600a909552978420965187549087167fffffffffffffffffffffffff00000000000000000000000000000000000000009182161788559451600188018054918816918716919091179055915160028701555160038601555160048501559351600590930180549390921692169190911790556007805487929061324c90849061426a565b9091555050600980549060006132618361448a565b90915550506040805173ffffffffffffffffffffffffffffffffffffffff83811682526020820189905291810187905260608101869052426080820152818516918416907f700053cd107377aa59290948ce358a84e039c1bdad2494b74d22dd63d11787e39060a00160405180910390a361125f838784306138e4565b6000828152600a60205260408120600301548061331d8473ffffffffffffffffffffffffffffffffffffffff1660009081526001602052604090205490565b1015613385576040517f08c379a000000000000000000000000000000000000000000000000000000000815260206004820152601160248201527f496e73756666696369656e742066756e640000000000000000000000000000006044820152606401610b6b565b61338f83826139f9565b6000848152600a602052604090819020805460029091015491517f6352211e0000000000000000000000000000000000000000000000000000000081526004810183905273ffffffffffffffffffffffffffffffffffffffff909116919030908390636352211e9060240160206040518083038186803b15801561341257600080fd5b505afa158015613426573d6000803e3d6000fd5b505050506040513d601f19601f8201168201806040525081019061344a9190613dbb565b73ffffffffffffffffffffffffffffffffffffffff16146134c7576040517f08c379a000000000000000000000000000000000000000000000000000000000815260206004820152600c60248201527f556e417574686f72697a656400000000000000000000000000000000000000006044820152606401610b6b565b8173ffffffffffffffffffffffffffffffffffffffff168573ffffffffffffffffffffffffffffffffffffffff167f17db246e2b79d27e01c800967d89cbee46000807213e933b6e4c4fddac899a78888442604051613539939291909283526020830191909152604082015260600190565b60405180910390a361354d828230886138e4565b5060019695505050505050565b6000818152600a602052604081206003015461357560035490565b1015613603576040517f08c379a000000000000000000000000000000000000000000000000000000000815260206004820152602260248201527f43616e206e6f742072656c656173652c2075736572732063616e2073656c6c2060448201527f69740000000000000000000000000000000000000000000000000000000000006064820152608401610b6b565b6000828152600a6020526040908190208054600182015460029092015492517f6352211e0000000000000000000000000000000000000000000000000000000081526004810184905273ffffffffffffffffffffffffffffffffffffffff91821693919092169130908490636352211e9060240160206040518083038186803b15801561368f57600080fd5b505afa1580156136a3573d6000803e3d6000fd5b505050506040513d601f19601f820116820180604052508101906136c79190613dbb565b73ffffffffffffffffffffffffffffffffffffffff1614613744576040517f08c379a000000000000000000000000000000000000000000000000000000000815260206004820152600c60248201527f556e417574686f72697a656400000000000000000000000000000000000000006044820152606401610b6b565b8273ffffffffffffffffffffffffffffffffffffffff168273ffffffffffffffffffffffffffffffffffffffff167fc5e594fd91506aa39ba7b825e73f11e6db93567d501772ff7af6981f006fd3318784426040516137b6939291909283526020830191909152604082015260600190565b60405180910390a36137ca838230856138e4565b50600195945050505050565b6000826000018281548110613814577f4e487b7100000000000000000000000000000000000000000000000000000000600052603260045260246000fd5b9060005260206000200154905092915050565b60075481600854613838919061426a565b11156138a0576040517f08c379a000000000000000000000000000000000000000000000000000000000815260206004820152601260248201527f4d696e743a2063617020657863656564656400000000000000000000000000006044820152606401610b6b565b80600860008282546138b2919061426a565b90915550610c6790508282613be6565b60006116768373ffffffffffffffffffffffffffffffffffffffff8416613d06565b600060026006541415613953576040517f08c379a000000000000000000000000000000000000000000000000000000000815260206004820152601f60248201527f5265656e7472616e637947756172643a207265656e7472616e742063616c6c006044820152606401610b6b565b60026006556040517f42842e0e00000000000000000000000000000000000000000000000000000000815273ffffffffffffffffffffffffffffffffffffffff84811660048301528381166024830152604482018690528616906342842e0e90606401600060405180830381600087803b1580156139d057600080fd5b505af11580156139e4573d6000803e3d6000fd5b50505050600190506001600655949350505050565b73ffffffffffffffffffffffffffffffffffffffff8216613a9c576040517f08c379a000000000000000000000000000000000000000000000000000000000815260206004820152602160248201527f45524332303a206275726e2066726f6d20746865207a65726f2061646472657360448201527f73000000000000000000000000000000000000000000000000000000000000006064820152608401610b6b565b73ffffffffffffffffffffffffffffffffffffffff821660009081526001602052604090205481811015613b52576040517f08c379a000000000000000000000000000000000000000000000000000000000815260206004820152602260248201527f45524332303a206275726e20616d6f756e7420657863656564732062616c616e60448201527f63650000000000000000000000000000000000000000000000000000000000006064820152608401610b6b565b73ffffffffffffffffffffffffffffffffffffffff83166000908152600160205260408120838303905560038054849290613b8e90849061441f565b909155505060405182815260009073ffffffffffffffffffffffffffffffffffffffff8516907fddf252ad1be2c89b69c2b068fc378daa952ba7f163c4a11628f55a4df523b3ef9060200160405180910390a3505050565b73ffffffffffffffffffffffffffffffffffffffff8216613c63576040517f08c379a000000000000000000000000000000000000000000000000000000000815260206004820152601f60248201527f45524332303a206d696e7420746f20746865207a65726f2061646472657373006044820152606401610b6b565b8060036000828254613c75919061426a565b909155505073ffffffffffffffffffffffffffffffffffffffff821660009081526001602052604081208054839290613caf90849061426a565b909155505060405181815273ffffffffffffffffffffffffffffffffffffffff8316906000907fddf252ad1be2c89b69c2b068fc378daa952ba7f163c4a11628f55a4df523b3ef9060200160405180910390a35050565b6000818152600183016020526040812054613d4d57508154600181810184556000848152602080822090930184905584548482528286019093526040902091909155610a9b565b506000610a9b565b60008083601f840112613d66578081fd5b50813567ffffffffffffffff811115613d7d578182fd5b6020830191508360208260051b8501011115613d9857600080fd5b9250929050565b600060208284031215613db0578081fd5b813561167681614521565b600060208284031215613dcc578081fd5b815161167681614521565b60008060408385031215613de9578081fd5b8235613df481614521565b91506020830135613e0481614521565b809150509250929050565b600080600060608486031215613e23578081fd5b8335613e2e81614521565b92506020840135613e3e81614521565b929592945050506040919091013590565b60008060008060808587031215613e64578081fd5b8435613e6f81614521565b93506020850135613e7f81614521565b925060408501359150606085013567ffffffffffffffff80821115613ea2578283fd5b818701915087601f830112613eb5578283fd5b813581811115613ec757613ec76144f2565b604051601f82017fffffffffffffffffffffffffffffffffffffffffffffffffffffffffffffffe0908116603f01168101908382118183101715613f0d57613f0d6144f2565b816040528281528a6020848701011115613f25578586fd5b82602086016020830137918201602001949094529598949750929550505050565b60008060408385031215613f58578182fd5b8235613f6381614521565b946020939093013593505050565b600080600080600080600060e0888a031215613f8b578283fd5b8735613f9681614521565b9960208901359950604089013598606081013598506080810135975060a0810135965060c00135945092505050565b60008060208385031215613fd7578182fd5b823567ffffffffffffffff811115613fed578283fd5b613ff985828601613d55565b90969095509350505050565b6000806000806040858703121561401a578384fd5b843567ffffffffffffffff80821115614031578586fd5b61403d88838901613d55565b90965094506020870135915080821115614055578384fd5b5061406287828801613d55565b95989497509550505050565b600080600060408486031215614082578283fd5b833567ffffffffffffffff811115614098578384fd5b6140a486828701613d55565b909790965060209590950135949350505050565b6000602082840312156140c9578081fd5b81518015158114611676578182fd5b6000602082840312156140e9578081fd5b5035919050565b600060208284031215614101578081fd5b5051919050565b60008060008060008060c08789031215614120578384fd5b863595506020870135945060408701359350606087013561414081614521565b9250608087013561415081614521565b915060a087013561416081614521565b809150509295509295509295565b60008060008060808587031215614183578182fd5b5050823594602084013594506040840135936060013592509050565b6020808252825182820181905260009190848201906040850190845b818110156141ed57835173ffffffffffffffffffffffffffffffffffffffff16835292840192918401916001016141bb565b50909695505050505050565b6000602080835283518082850152825b8181101561422557858101830151858201604001528201614209565b818111156142365783604083870101525b50601f017fffffffffffffffffffffffffffffffffffffffffffffffffffffffffffffffe016929092016040019392505050565b6000821982111561427d5761427d6144c3565b500190565b6000826142b6577f4e487b710000000000000000000000000000000000000000000000000000000081526012600452602481fd5b500490565b600181815b8085111561431457817fffffffffffffffffffffffffffffffffffffffffffffffffffffffffffffffff048211156142fa576142fa6144c3565b8085161561430757918102915b93841c93908002906142c0565b509250929050565b6000611676838360008261433257506001610a9b565b8161433f57506000610a9b565b8160018114614355576002811461435f5761437b565b6001915050610a9b565b60ff841115614370576143706144c3565b50506001821b610a9b565b5060208310610133831016604e8410600b841016171561439e575081810a610a9b565b6143a883836142bb565b807fffffffffffffffffffffffffffffffffffffffffffffffffffffffffffffffff048211156143da576143da6144c3565b029392505050565b6000817fffffffffffffffffffffffffffffffffffffffffffffffffffffffffffffffff048311821515161561441a5761441a6144c3565b500290565b600082821015614431576144316144c3565b500390565b600181811c9082168061444a57607f821691505b60208210811415614484577f4e487b7100000000000000000000000000000000000000000000000000000000600052602260045260246000fd5b50919050565b60007fffffffffffffffffffffffffffffffffffffffffffffffffffffffffffffffff8214156144bc576144bc6144c3565b5060010190565b7f4e487b7100000000000000000000000000000000000000000000000000000000600052601160045260246000fd5b7f4e487b7100000000000000000000000000000000000000000000000000000000600052604160045260246000fd5b73ffffffffffffffffffffffffffffffffffffffff81168114610c1257600080fdfea2646970667358221220af7b83b6dc559a001f1ce3af3ee2245ae0702cf995ed125d90d38ae7a6f860f664736f6c63430008040033",
  "devdoc": {
    "kind": "dev",
    "methods": {
      "addPool(address,uint256,uint256,uint256,uint256,uint256,uint256)": {
        "details": "only owner can call it",
        "params": {
          "_minimumStake": "minimum amount user should stake in order to participatin in this pool",
          "_shareAPR": "perenage numerator of the pool APR generated",
          "_shareAPRBase": "perenage denominator of the pool APR generated",
          "_token": "erc20 token address",
          "_totalShare": "perenage numerator of pool share of the farm overall points",
          "_totalShareBase": "perenage denominator of pool share of the farm overall points",
          "cap_": "the maxmum amount of token to be staked in this pool"
        }
      },
      "addTokenReward(uint256,uint256,uint256,address,address,address)": {
        "details": "only owner can call itnft point increase the RSFTI cap",
        "params": {
          "_minimumStakeRequired": "optional, for projects the would enforce user to stake their token in order to calim their rewards",
          "_nftAddress": "nft contract address",
          "_priceInPoint": "how many point required to calim it",
          "_tokenId": "nft token id",
          "_tokenLinked": "optinal , pool token address, only if `_minimumStakeRequired` is used to check if the staker is participating in the pool",
          "owner_": "the owner of this nft , this is used as well to return the nft back if no one calim it with no points left in the farm"
        }
      },
      "allowance(address,address)": {
        "details": "See {IERC20-allowance}."
      },
      "approve(address,uint256)": {
        "details": "See {IERC20-approve}. Requirements: - `spender` cannot be the zero address."
      },
      "balanceOf(address)": {
        "details": "See {IERC20-balanceOf}."
      },
      "claim(uint256)": {
        "params": {
          "key": "nft id"
        }
      },
      "decimals()": {
        "details": "Returns the number of decimals used to get its user representation. For example, if `decimals` equals `2`, a balance of `505` tokens should be displayed to a user as `5.05` (`505 / 10 ** 2`). Tokens usually opt for a value of 18, imitating the relationship between Ether and Wei. This is the value {ERC20} uses, unless this function is overridden; NOTE: This information is only used for _display_ purposes: it in no way affects any of the arithmetic of the contract, including {IERC20-balanceOf} and {IERC20-transfer}."
      },
      "decreaseAllowance(address,uint256)": {
        "details": "Atomically decreases the allowance granted to `spender` by the caller. This is an alternative to {approve} that can be used as a mitigation for problems described in {IERC20-approve}. Emits an {Approval} event indicating the updated allowance. Requirements: - `spender` cannot be the zero address. - `spender` must have allowance for the caller of at least `subtractedValue`."
      },
      "getUserPools(address)": {
        "params": {
          "user": "user address"
        },
        "returns": {
          "currentUserPools": "user's pool addresses"
        }
      },
      "increaseAllowance(address,uint256)": {
        "details": "Atomically increases the allowance granted to `spender` by the caller. This is an alternative to {approve} that can be used as a mitigation for problems described in {IERC20-approve}. Emits an {Approval} event indicating the updated allowance. Requirements: - `spender` cannot be the zero address."
      },
      "name()": {
        "details": "Returns the name of the token."
      },
      "onERC721Received(address,address,uint256,bytes)": {
        "details": "See {IERC721Receiver-onERC721Received}. Always returns `IERC721Receiver.onERC721Received.selector`."
      },
      "owner()": {
        "details": "Returns the address of the current owner."
      },
      "redeem(address)": {
        "params": {
          "_token": "pool token address"
        }
      },
      "redeemAndClaim(address[],uint256)": {
        "params": {
          "_tokens": "array of pool tokens address",
          "key": "nft id"
        }
      },
      "redeemBatch(address[])": {
        "params": {
          "_tokens": "array of pool tokens address"
        }
      },
      "releaseNFT(uint256)": {
        "details": "only  owner can call itcalled only after the `_timeToRelease`"
      },
      "renounceOwnership()": {
        "details": "Leaves the contract without owner. It will not be possible to call `onlyOwner` functions anymore. Can only be called by the current owner. NOTE: Renouncing ownership will leave the contract without an owner, thereby removing any functionality that is only available to the owner."
      },
      "stake(address,uint256)": {
        "details": "ony before launch time",
        "params": {
          "_amount": "user stakes to be added to this pool",
          "_token": "pool token address"
        }
      },
      "stakeBatch(address[],uint256[])": {
        "details": "ony before launch time,both function arguments length must be identical",
        "params": {
          "_amounts": "array of values to be staked for each pool",
          "_tokens": "array of pool tokens address"
        }
      },
      "symbol()": {
        "details": "Returns the symbol of the token, usually a shorter version of the name."
      },
      "totalSupply()": {
        "details": "See {IERC20-totalSupply}."
      },
      "transfer(address,uint256)": {
        "details": "See {IERC20-transfer}. Requirements: - `recipient` cannot be the zero address. - the caller must have a balance of at least `amount`."
      },
      "transferFrom(address,address,uint256)": {
        "details": "See {IERC20-transferFrom}. Emits an {Approval} event indicating the updated allowance. This is not required by the EIP. See the note at the beginning of {ERC20}. Requirements: - `sender` and `recipient` cannot be the zero address. - `sender` must have a balance of at least `amount`. - the caller must have allowance for ``sender``'s tokens of at least `amount`."
      },
      "transferOwnership(address)": {
        "details": "Transfers ownership of the contract to a new account (`newOwner`). Can only be called by the current owner."
      },
      "unStakeEarly(address)": {
        "params": {
          "_token": "pool token address"
        }
      },
      "unStakeEarlyBatch(address[])": {
        "details": "only before launchtimeonly staker can call it",
        "params": {
          "_tokens": "array of pool tokens address"
        }
      },
      "unstake(address)": {
        "params": {
          "_token": "pool token address"
        }
      },
      "unstakeBatch(address[])": {
        "params": {
          "_tokens": "array of pool tokens address"
        }
      },
      "userPoolDetails(address,address)": {
        "returns": {
          "amount": "user stakes in this pool",
          "lastRewardBlock": "last redeeming time",
          "stakeTime": " time of staking"
        }
      },
      "userPoolReward(address,address)": {
        "params": {
          "_token": "pool token address",
          "_user": "user address"
        },
        "returns": {
          "_totalRewards": "number of rewards"
        }
      },
      "userRewards(address)": {
        "params": {
          "user": "user address"
        },
        "returns": {
          "_totalRewards": "number of rewards"
        }
      }
    },
    "title": "Startfi farm contract where users stake their tokens and get NFT as rewards",
    "version": 1
  },
  "userdoc": {
    "kind": "user",
    "methods": {
      "addPool(address,uint256,uint256,uint256,uint256,uint256,uint256)": {
        "notice": "create new pool"
      },
      "addTokenReward(uint256,uint256,uint256,address,address,address)": {
        "notice": "add the nft rewards that users will claim"
      },
      "releaseNFT(uint256)": {
        "notice": "to protect nfts from being locked in the contract , owner can call it after the time to release and return it back to the original owner as long as minted point is less than the reward `_priceInPoint`"
      },
      "stake(address,uint256)": {
        "notice": "let user to stake tokens in a certain pool"
      },
      "stakeBatch(address[],uint256[])": {
        "notice": "let user to stake in maltible pools in a single transaction"
      },
      "unStakeEarlyBatch(address[])": {
        "notice": "before the farm starts, Let user unstake token from many pools at once"
      },
      "userPoolReward(address,address)": {
        "notice": "calculate user rewards at the call time ( between launchtime to deadline) in a certain pool"
      },
      "userRewards(address)": {
        "notice": "calculate user rewards at the call time ( between launchtime to deadline) in all user pools"
      }
    },
    "version": 1
  },
  "storageLayout": {
    "storage": [
      {
        "astId": 591,
        "contract": "contracts/StartfiFarm.sol:StartfiFarm",
        "label": "_owner",
        "offset": 0,
        "slot": "0",
        "type": "t_address"
      },
      {
        "astId": 835,
        "contract": "contracts/StartfiFarm.sol:StartfiFarm",
        "label": "_balances",
        "offset": 0,
        "slot": "1",
        "type": "t_mapping(t_address,t_uint256)"
      },
      {
        "astId": 841,
        "contract": "contracts/StartfiFarm.sol:StartfiFarm",
        "label": "_allowances",
        "offset": 0,
        "slot": "2",
        "type": "t_mapping(t_address,t_mapping(t_address,t_uint256))"
      },
      {
        "astId": 843,
        "contract": "contracts/StartfiFarm.sol:StartfiFarm",
        "label": "_totalSupply",
        "offset": 0,
        "slot": "3",
        "type": "t_uint256"
      },
      {
        "astId": 845,
        "contract": "contracts/StartfiFarm.sol:StartfiFarm",
        "label": "_name",
        "offset": 0,
        "slot": "4",
        "type": "t_string_storage"
      },
      {
        "astId": 847,
        "contract": "contracts/StartfiFarm.sol:StartfiFarm",
        "label": "_symbol",
        "offset": 0,
        "slot": "5",
        "type": "t_string_storage"
      },
      {
        "astId": 790,
        "contract": "contracts/StartfiFarm.sol:StartfiFarm",
        "label": "_status",
        "offset": 0,
        "slot": "6",
        "type": "t_uint256"
      },
      {
        "astId": 4901,
        "contract": "contracts/StartfiFarm.sol:StartfiFarm",
        "label": "_cap",
        "offset": 0,
        "slot": "7",
        "type": "t_uint256"
      },
      {
        "astId": 4903,
        "contract": "contracts/StartfiFarm.sol:StartfiFarm",
        "label": "_mintedPoints",
        "offset": 0,
        "slot": "8",
        "type": "t_uint256"
      },
      {
        "astId": 4905,
        "contract": "contracts/StartfiFarm.sol:StartfiFarm",
        "label": "_tokenCount",
        "offset": 0,
        "slot": "9",
        "type": "t_uint256"
      },
      {
        "astId": 4923,
        "contract": "contracts/StartfiFarm.sol:StartfiFarm",
        "label": "rewardTokens",
        "offset": 0,
        "slot": "10",
        "type": "t_mapping(t_uint256,t_struct(tokenDetails)4918_storage)"
      },
      {
        "astId": 4441,
        "contract": "contracts/StartfiFarm.sol:StartfiFarm",
        "label": "_RstfiMaxSupply",
        "offset": 0,
        "slot": "11",
        "type": "t_uint256"
      },
      {
        "astId": 4443,
        "contract": "contracts/StartfiFarm.sol:StartfiFarm",
        "label": "totalShares",
        "offset": 0,
        "slot": "12",
        "type": "t_uint256"
      },
      {
        "astId": 4461,
        "contract": "contracts/StartfiFarm.sol:StartfiFarm",
        "label": "_poolsSet",
        "offset": 0,
        "slot": "13",
        "type": "t_struct(AddressSet)4131_storage"
      },
      {
        "astId": 4466,
        "contract": "contracts/StartfiFarm.sol:StartfiFarm",
        "label": "_pools",
        "offset": 0,
        "slot": "15",
        "type": "t_mapping(t_address,t_struct(poolDetails)4458_storage)"
      },
      {
        "astId": 5799,
        "contract": "contracts/StartfiFarm.sol:StartfiFarm",
        "label": "userPools",
        "offset": 0,
        "slot": "16",
        "type": "t_mapping(t_address,t_mapping(t_address,t_struct(userPool)5792_storage))"
      },
      {
        "astId": 5804,
        "contract": "contracts/StartfiFarm.sol:StartfiFarm",
        "label": "_userToPools",
        "offset": 0,
        "slot": "17",
        "type": "t_mapping(t_address,t_struct(AddressSet)4131_storage)"
      }
    ],
    "types": {
      "t_address": {
        "encoding": "inplace",
        "label": "address",
        "numberOfBytes": "20"
      },
      "t_array(t_bytes32)dyn_storage": {
        "base": "t_bytes32",
        "encoding": "dynamic_array",
        "label": "bytes32[]",
        "numberOfBytes": "32"
      },
      "t_bytes32": {
        "encoding": "inplace",
        "label": "bytes32",
        "numberOfBytes": "32"
      },
      "t_mapping(t_address,t_mapping(t_address,t_struct(userPool)5792_storage))": {
        "encoding": "mapping",
        "key": "t_address",
        "label": "mapping(address => mapping(address => struct UserPools.userPool))",
        "numberOfBytes": "32",
        "value": "t_mapping(t_address,t_struct(userPool)5792_storage)"
      },
      "t_mapping(t_address,t_mapping(t_address,t_uint256))": {
        "encoding": "mapping",
        "key": "t_address",
        "label": "mapping(address => mapping(address => uint256))",
        "numberOfBytes": "32",
        "value": "t_mapping(t_address,t_uint256)"
      },
      "t_mapping(t_address,t_struct(AddressSet)4131_storage)": {
        "encoding": "mapping",
        "key": "t_address",
        "label": "mapping(address => struct EnumerableSet.AddressSet)",
        "numberOfBytes": "32",
        "value": "t_struct(AddressSet)4131_storage"
      },
      "t_mapping(t_address,t_struct(poolDetails)4458_storage)": {
        "encoding": "mapping",
        "key": "t_address",
        "label": "mapping(address => struct FarmPools.poolDetails)",
        "numberOfBytes": "32",
        "value": "t_struct(poolDetails)4458_storage"
      },
      "t_mapping(t_address,t_struct(userPool)5792_storage)": {
        "encoding": "mapping",
        "key": "t_address",
        "label": "mapping(address => struct UserPools.userPool)",
        "numberOfBytes": "32",
        "value": "t_struct(userPool)5792_storage"
      },
      "t_mapping(t_address,t_uint256)": {
        "encoding": "mapping",
        "key": "t_address",
        "label": "mapping(address => uint256)",
        "numberOfBytes": "32",
        "value": "t_uint256"
      },
      "t_mapping(t_bytes32,t_uint256)": {
        "encoding": "mapping",
        "key": "t_bytes32",
        "label": "mapping(bytes32 => uint256)",
        "numberOfBytes": "32",
        "value": "t_uint256"
      },
      "t_mapping(t_uint256,t_struct(tokenDetails)4918_storage)": {
        "encoding": "mapping",
        "key": "t_uint256",
        "label": "mapping(uint256 => struct FarmTokens.tokenDetails)",
        "numberOfBytes": "32",
        "value": "t_struct(tokenDetails)4918_storage"
      },
      "t_string_storage": {
        "encoding": "bytes",
        "label": "string",
        "numberOfBytes": "32"
      },
      "t_struct(AddressSet)4131_storage": {
        "encoding": "inplace",
        "label": "struct EnumerableSet.AddressSet",
        "members": [
          {
            "astId": 4130,
            "contract": "contracts/StartfiFarm.sol:StartfiFarm",
            "label": "_inner",
            "offset": 0,
            "slot": "0",
            "type": "t_struct(Set)3830_storage"
          }
        ],
        "numberOfBytes": "64"
      },
      "t_struct(Set)3830_storage": {
        "encoding": "inplace",
        "label": "struct EnumerableSet.Set",
        "members": [
          {
            "astId": 3825,
            "contract": "contracts/StartfiFarm.sol:StartfiFarm",
            "label": "_values",
            "offset": 0,
            "slot": "0",
            "type": "t_array(t_bytes32)dyn_storage"
          },
          {
            "astId": 3829,
            "contract": "contracts/StartfiFarm.sol:StartfiFarm",
            "label": "_indexes",
            "offset": 0,
            "slot": "1",
            "type": "t_mapping(t_bytes32,t_uint256)"
          }
        ],
        "numberOfBytes": "64"
      },
      "t_struct(poolDetails)4458_storage": {
        "encoding": "inplace",
        "label": "struct FarmPools.poolDetails",
        "members": [
          {
            "astId": 4445,
            "contract": "contracts/StartfiFarm.sol:StartfiFarm",
            "label": "shareAPR",
            "offset": 0,
            "slot": "0",
            "type": "t_uint256"
          },
          {
            "astId": 4447,
            "contract": "contracts/StartfiFarm.sol:StartfiFarm",
            "label": "shareAPRBase",
            "offset": 0,
            "slot": "1",
            "type": "t_uint256"
          },
          {
            "astId": 4449,
            "contract": "contracts/StartfiFarm.sol:StartfiFarm",
            "label": "minimumStake",
            "offset": 0,
            "slot": "2",
            "type": "t_uint256"
          },
          {
            "astId": 4451,
            "contract": "contracts/StartfiFarm.sol:StartfiFarm",
            "label": "cap",
            "offset": 0,
            "slot": "3",
            "type": "t_uint256"
          },
          {
            "astId": 4453,
            "contract": "contracts/StartfiFarm.sol:StartfiFarm",
            "label": "totalSupply",
            "offset": 0,
            "slot": "4",
            "type": "t_uint256"
          },
          {
            "astId": 4455,
            "contract": "contracts/StartfiFarm.sol:StartfiFarm",
            "label": "totalShare",
            "offset": 0,
            "slot": "5",
            "type": "t_uint256"
          },
          {
            "astId": 4457,
            "contract": "contracts/StartfiFarm.sol:StartfiFarm",
            "label": "totalShareBase",
            "offset": 0,
            "slot": "6",
            "type": "t_uint256"
          }
        ],
        "numberOfBytes": "224"
      },
      "t_struct(tokenDetails)4918_storage": {
        "encoding": "inplace",
        "label": "struct FarmTokens.tokenDetails",
        "members": [
          {
            "astId": 4907,
            "contract": "contracts/StartfiFarm.sol:StartfiFarm",
            "label": "nftAddress",
            "offset": 0,
            "slot": "0",
            "type": "t_address"
          },
          {
            "astId": 4909,
            "contract": "contracts/StartfiFarm.sol:StartfiFarm",
            "label": "owner",
            "offset": 0,
            "slot": "1",
            "type": "t_address"
          },
          {
            "astId": 4911,
            "contract": "contracts/StartfiFarm.sol:StartfiFarm",
            "label": "tokenId",
            "offset": 0,
            "slot": "2",
            "type": "t_uint256"
          },
          {
            "astId": 4913,
            "contract": "contracts/StartfiFarm.sol:StartfiFarm",
            "label": "priceInPoint",
            "offset": 0,
            "slot": "3",
            "type": "t_uint256"
          },
          {
            "astId": 4915,
            "contract": "contracts/StartfiFarm.sol:StartfiFarm",
            "label": "minimumStakeRequired",
            "offset": 0,
            "slot": "4",
            "type": "t_uint256"
          },
          {
            "astId": 4917,
            "contract": "contracts/StartfiFarm.sol:StartfiFarm",
            "label": "tokenLinked",
            "offset": 0,
            "slot": "5",
            "type": "t_address"
          }
        ],
        "numberOfBytes": "192"
      },
      "t_struct(userPool)5792_storage": {
        "encoding": "inplace",
        "label": "struct UserPools.userPool",
        "members": [
          {
            "astId": 5787,
            "contract": "contracts/StartfiFarm.sol:StartfiFarm",
            "label": "amount",
            "offset": 0,
            "slot": "0",
            "type": "t_uint256"
          },
          {
            "astId": 5789,
            "contract": "contracts/StartfiFarm.sol:StartfiFarm",
            "label": "stakeTime",
            "offset": 0,
            "slot": "1",
            "type": "t_uint256"
          },
          {
            "astId": 5791,
            "contract": "contracts/StartfiFarm.sol:StartfiFarm",
            "label": "lastRewardBlock",
            "offset": 0,
            "slot": "2",
            "type": "t_uint256"
          }
        ],
        "numberOfBytes": "96"
      },
      "t_uint256": {
        "encoding": "inplace",
        "label": "uint256",
        "numberOfBytes": "32"
      }
    }
  }
}